{
  "contractName": "SyfinNFT",
  "abi": [
    {
      "inputs": [],
      "stateMutability": "nonpayable",
      "type": "constructor"
    },
    {
      "anonymous": false,
      "inputs": [
        {
          "indexed": true,
          "internalType": "address",
          "name": "owner",
          "type": "address"
        },
        {
          "indexed": true,
          "internalType": "address",
          "name": "approved",
          "type": "address"
        },
        {
          "indexed": true,
          "internalType": "uint256",
          "name": "tokenId",
          "type": "uint256"
        }
      ],
      "name": "Approval",
      "type": "event"
    },
    {
      "anonymous": false,
      "inputs": [
        {
          "indexed": true,
          "internalType": "address",
          "name": "owner",
          "type": "address"
        },
        {
          "indexed": true,
          "internalType": "address",
          "name": "operator",
          "type": "address"
        },
        {
          "indexed": false,
          "internalType": "bool",
          "name": "approved",
          "type": "bool"
        }
      ],
      "name": "ApprovalForAll",
      "type": "event"
    },
    {
      "anonymous": false,
      "inputs": [
        {
          "indexed": true,
          "internalType": "address",
          "name": "from",
          "type": "address"
        },
        {
          "indexed": true,
          "internalType": "address",
          "name": "to",
          "type": "address"
        },
        {
          "indexed": true,
          "internalType": "uint256",
          "name": "tokenId",
          "type": "uint256"
        }
      ],
      "name": "Transfer",
      "type": "event"
    },
    {
      "inputs": [
        {
          "internalType": "address",
          "name": "to",
          "type": "address"
        },
        {
          "internalType": "uint256",
          "name": "tokenId",
          "type": "uint256"
        }
      ],
      "name": "approve",
      "outputs": [],
      "stateMutability": "nonpayable",
      "type": "function"
    },
    {
      "inputs": [
        {
          "internalType": "address",
          "name": "owner",
          "type": "address"
        }
      ],
      "name": "balanceOf",
      "outputs": [
        {
          "internalType": "uint256",
          "name": "",
          "type": "uint256"
        }
      ],
      "stateMutability": "view",
      "type": "function"
    },
    {
      "inputs": [
        {
          "internalType": "uint256",
          "name": "",
          "type": "uint256"
        }
      ],
      "name": "categories",
      "outputs": [
        {
          "internalType": "string",
          "name": "",
          "type": "string"
        }
      ],
      "stateMutability": "view",
      "type": "function"
    },
    {
      "inputs": [
        {
          "internalType": "uint256",
          "name": "tokenId",
          "type": "uint256"
        }
      ],
      "name": "getApproved",
      "outputs": [
        {
          "internalType": "address",
          "name": "",
          "type": "address"
        }
      ],
      "stateMutability": "view",
      "type": "function"
    },
    {
      "inputs": [
        {
          "internalType": "uint256",
          "name": "",
          "type": "uint256"
        }
      ],
      "name": "imageData",
      "outputs": [
        {
          "internalType": "string",
          "name": "name",
          "type": "string"
        },
        {
          "internalType": "string",
          "name": "mimeType",
          "type": "string"
        },
        {
          "internalType": "string",
          "name": "nftData",
          "type": "string"
        },
        {
          "internalType": "string",
          "name": "category",
          "type": "string"
        },
        {
          "internalType": "string",
          "name": "description",
          "type": "string"
        },
        {
          "internalType": "string",
          "name": "url",
          "type": "string"
        },
        {
          "internalType": "uint256",
          "name": "price",
          "type": "uint256"
        }
      ],
      "stateMutability": "view",
      "type": "function"
    },
    {
      "inputs": [
        {
          "internalType": "uint256",
          "name": "",
          "type": "uint256"
        }
      ],
      "name": "images",
      "outputs": [
        {
          "internalType": "string",
          "name": "",
          "type": "string"
        }
      ],
      "stateMutability": "view",
      "type": "function"
    },
    {
      "inputs": [
        {
          "internalType": "address",
          "name": "owner",
          "type": "address"
        },
        {
          "internalType": "address",
          "name": "operator",
          "type": "address"
        }
      ],
      "name": "isApprovedForAll",
      "outputs": [
        {
          "internalType": "bool",
          "name": "",
          "type": "bool"
        }
      ],
      "stateMutability": "view",
      "type": "function"
    },
    {
      "inputs": [
        {
          "internalType": "uint256",
          "name": "",
          "type": "uint256"
        }
      ],
      "name": "mimetypes",
      "outputs": [
        {
          "internalType": "string",
          "name": "",
          "type": "string"
        }
      ],
      "stateMutability": "view",
      "type": "function"
    },
    {
      "inputs": [],
      "name": "name",
      "outputs": [
        {
          "internalType": "string",
          "name": "",
          "type": "string"
        }
      ],
      "stateMutability": "view",
      "type": "function"
    },
    {
      "inputs": [
        {
          "internalType": "uint256",
          "name": "tokenId",
          "type": "uint256"
        }
      ],
      "name": "ownerOf",
      "outputs": [
        {
          "internalType": "address",
          "name": "",
          "type": "address"
        }
      ],
      "stateMutability": "view",
      "type": "function"
    },
    {
      "inputs": [
        {
          "internalType": "address",
          "name": "from",
          "type": "address"
        },
        {
          "internalType": "address",
          "name": "to",
          "type": "address"
        },
        {
          "internalType": "uint256",
          "name": "tokenId",
          "type": "uint256"
        }
      ],
      "name": "safeTransferFrom",
      "outputs": [],
      "stateMutability": "nonpayable",
      "type": "function"
    },
    {
      "inputs": [
        {
          "internalType": "address",
          "name": "from",
          "type": "address"
        },
        {
          "internalType": "address",
          "name": "to",
          "type": "address"
        },
        {
          "internalType": "uint256",
          "name": "tokenId",
          "type": "uint256"
        },
        {
          "internalType": "bytes",
          "name": "_data",
          "type": "bytes"
        }
      ],
      "name": "safeTransferFrom",
      "outputs": [],
      "stateMutability": "nonpayable",
      "type": "function"
    },
    {
      "inputs": [
        {
          "internalType": "address",
          "name": "operator",
          "type": "address"
        },
        {
          "internalType": "bool",
          "name": "approved",
          "type": "bool"
        }
      ],
      "name": "setApprovalForAll",
      "outputs": [],
      "stateMutability": "nonpayable",
      "type": "function"
    },
    {
      "inputs": [
        {
          "internalType": "bytes4",
          "name": "interfaceId",
          "type": "bytes4"
        }
      ],
      "name": "supportsInterface",
      "outputs": [
        {
          "internalType": "bool",
          "name": "",
          "type": "bool"
        }
      ],
      "stateMutability": "view",
      "type": "function"
    },
    {
      "inputs": [],
      "name": "symbol",
      "outputs": [
        {
          "internalType": "string",
          "name": "",
          "type": "string"
        }
      ],
      "stateMutability": "view",
      "type": "function"
    },
    {
      "inputs": [
        {
          "internalType": "uint256",
          "name": "index",
          "type": "uint256"
        }
      ],
      "name": "tokenByIndex",
      "outputs": [
        {
          "internalType": "uint256",
          "name": "",
          "type": "uint256"
        }
      ],
      "stateMutability": "view",
      "type": "function"
    },
    {
      "inputs": [
        {
          "internalType": "address",
          "name": "owner",
          "type": "address"
        },
        {
          "internalType": "uint256",
          "name": "index",
          "type": "uint256"
        }
      ],
      "name": "tokenOfOwnerByIndex",
      "outputs": [
        {
          "internalType": "uint256",
          "name": "",
          "type": "uint256"
        }
      ],
      "stateMutability": "view",
      "type": "function"
    },
    {
      "inputs": [
        {
          "internalType": "uint256",
          "name": "tokenId",
          "type": "uint256"
        }
      ],
      "name": "tokenURI",
      "outputs": [
        {
          "internalType": "string",
          "name": "",
          "type": "string"
        }
      ],
      "stateMutability": "view",
      "type": "function"
    },
    {
      "inputs": [],
      "name": "totalSupply",
      "outputs": [
        {
          "internalType": "uint256",
          "name": "",
          "type": "uint256"
        }
      ],
      "stateMutability": "view",
      "type": "function"
    },
    {
      "inputs": [
        {
          "internalType": "address",
          "name": "from",
          "type": "address"
        },
        {
          "internalType": "address",
          "name": "to",
          "type": "address"
        },
        {
          "internalType": "uint256",
          "name": "tokenId",
          "type": "uint256"
        }
      ],
      "name": "transferFrom",
      "outputs": [],
      "stateMutability": "nonpayable",
      "type": "function"
    },
    {
      "inputs": [
        {
          "internalType": "string",
          "name": "_name",
          "type": "string"
        },
        {
          "internalType": "string",
          "name": "_mimeType",
          "type": "string"
        },
        {
          "internalType": "string",
          "name": "_nftData",
          "type": "string"
        },
        {
          "internalType": "string",
          "name": "_category",
          "type": "string"
        },
        {
          "internalType": "string",
          "name": "_description",
          "type": "string"
        },
        {
          "internalType": "string",
          "name": "_url",
          "type": "string"
        },
        {
          "internalType": "uint256",
          "name": "_price",
          "type": "uint256"
        }
      ],
      "name": "mint",
      "outputs": [
        {
          "internalType": "uint256",
          "name": "",
          "type": "uint256"
        }
      ],
      "stateMutability": "nonpayable",
      "type": "function"
    },
    {
      "inputs": [
        {
          "internalType": "address",
          "name": "_to",
          "type": "address"
        },
        {
          "internalType": "uint256",
          "name": "_tokenId",
          "type": "uint256"
        }
      ],
      "name": "approveNFT",
      "outputs": [],
      "stateMutability": "nonpayable",
      "type": "function"
    },
    {
      "inputs": [
        {
          "internalType": "address",
          "name": "_address",
          "type": "address"
        },
        {
          "internalType": "uint256",
          "name": "_tokenId",
          "type": "uint256"
        }
      ],
      "name": "isApprovedOrOwner",
      "outputs": [
        {
          "internalType": "bool",
          "name": "",
          "type": "bool"
        }
      ],
      "stateMutability": "nonpayable",
      "type": "function"
    },
    {
      "inputs": [
        {
          "internalType": "uint256",
          "name": "_id",
          "type": "uint256"
        },
        {
          "internalType": "uint256",
          "name": "_price",
          "type": "uint256"
        }
      ],
      "name": "updatePrice",
      "outputs": [
        {
          "internalType": "bool",
          "name": "",
          "type": "bool"
        }
      ],
      "stateMutability": "nonpayable",
      "type": "function"
    },
    {
      "inputs": [
        {
          "internalType": "address",
          "name": "_to",
          "type": "address"
        },
        {
          "internalType": "uint256",
          "name": "_tokenId",
          "type": "uint256"
        },
        {
          "internalType": "uint256",
          "name": "_price",
          "type": "uint256"
        }
      ],
      "name": "approveForSale",
      "outputs": [],
      "stateMutability": "nonpayable",
      "type": "function"
    },
    {
      "inputs": [
        {
          "internalType": "address",
          "name": "_to",
          "type": "address"
        },
        {
          "internalType": "uint256",
          "name": "_tokenId",
          "type": "uint256"
        },
        {
          "internalType": "uint256",
          "name": "_price",
          "type": "uint256"
        },
        {
          "internalType": "uint256",
          "name": "_time",
          "type": "uint256"
        }
      ],
      "name": "approveForAuction",
      "outputs": [],
      "stateMutability": "nonpayable",
      "type": "function"
    },
    {
      "inputs": [
        {
          "internalType": "uint256",
          "name": "_tokenId",
          "type": "uint256"
        }
      ],
      "name": "nftSold",
      "outputs": [],
      "stateMutability": "nonpayable",
      "type": "function"
    }
  ],
  "bytecode": "0x60806040523480156200001157600080fd5b506040518060400160405280600981526020017f537966696e5f4e465400000000000000000000000000000000000000000000008152506040518060400160405280600681526020017f5359464e46540000000000000000000000000000000000000000000000000000815250816000908051906020019062000096929190620000b8565b508060019080519060200190620000af929190620000b8565b505050620001cd565b828054620000c69062000168565b90600052602060002090601f016020900481019282620000ea576000855562000136565b82601f106200010557805160ff191683800117855562000136565b8280016001018555821562000136579182015b828111156200013557825182559160200191906001019062000118565b5b50905062000145919062000149565b5090565b5b80821115620001645760008160009055506001016200014a565b5090565b600060028204905060018216806200018157607f821691505b602082108114156200019857620001976200019e565b5b50919050565b7f4e487b7100000000000000000000000000000000000000000000000000000000600052602260045260246000fd5b61401c80620001dd6000396000f3fe608060405234801561001057600080fd5b50600436106101a95760003560e01c80634f6ccce7116100f9578063a22cb46511610097578063c87b56dd11610071578063c87b56dd1461052e578063d2c8d2761461055e578063e985e9c51461058e578063fbd4bae1146105be576101a9565b8063a22cb465146104c6578063b88d4fde146104e2578063c6cdbe5e146104fe576101a9565b806382367b2d116100d357806382367b2d1461042c578063848564821461045c57806395d89b411461048c5780639600dd83146104aa576101a9565b80634f6ccce71461039c5780636352211e146103cc57806370a08231146103fc576101a9565b806318160ddd116101665780632f745c59116101405780632f745c591461030457806341160d471461033457806342842e0e14610350578063430c20811461036c576101a9565b806318160ddd1461029a57806323b872dd146102b8578063250d6b5d146102d4576101a9565b806301ffc9a7146101ae578063061ba2f1146101de57806306fdde0314610214578063081812fc14610232578063095ea7b31461026257806316875c111461027e575b600080fd5b6101c860048036038101906101c39190612f10565b6105da565b6040516101d591906138bb565b60405180910390f35b6101f860048036038101906101f39190613090565b610654565b60405161020b97969594939291906138f8565b60405180910390f35b61021c6109c6565b60405161022991906138d6565b60405180910390f35b61024c60048036038101906102479190613090565b610a58565b6040516102599190613854565b60405180910390f35b61027c60048036038101906102779190612e22565b610add565b005b61029860048036038101906102939190613090565b610bf5565b005b6102a2610c50565b6040516102af9190613bb1565b60405180910390f35b6102d260048036038101906102cd9190612d1c565b610c5d565b005b6102ee60048036038101906102e99190613090565b610cbd565b6040516102fb91906138d6565b60405180910390f35b61031e60048036038101906103199190612e22565b610d69565b60405161032b9190613bb1565b60405180910390f35b61034e60048036038101906103499190612ead565b610e0e565b005b61036a60048036038101906103659190612d1c565b610ec3565b005b61038660048036038101906103819190612e22565b610ee3565b60405161039391906138bb565b60405180910390f35b6103b660048036038101906103b19190613090565b610ef7565b6040516103c39190613bb1565b60405180910390f35b6103e660048036038101906103e19190613090565b610f8e565b6040516103f39190613854565b60405180910390f35b61041660048036038101906104119190612cb7565b611040565b6040516104239190613bb1565b60405180910390f35b610446600480360381019061044191906130b9565b6110f8565b60405161045391906138bb565b60405180910390f35b61047660048036038101906104719190613090565b61115f565b60405161048391906138d6565b60405180910390f35b61049461120b565b6040516104a191906138d6565b60405180910390f35b6104c460048036038101906104bf9190612e22565b61129d565b005b6104e060048036038101906104db9190612de6565b6112ab565b005b6104fc60048036038101906104f79190612d6b565b61142c565b005b61051860048036038101906105139190613090565b61148e565b60405161052591906138d6565b60405180910390f35b61054860048036038101906105439190613090565b61153a565b60405161055591906138d6565b60405180910390f35b61057860048036038101906105739190612f62565b61168c565b6040516105859190613bb1565b60405180910390f35b6105a860048036038101906105a39190612ce0565b6118f6565b6040516105b591906138bb565b60405180910390f35b6105d860048036038101906105d39190612e5e565b61198a565b005b60007f780e9d63000000000000000000000000000000000000000000000000000000007bffffffffffffffffffffffffffffffffffffffffffffffffffffffff1916827bffffffffffffffffffffffffffffffffffffffffffffffffffffffff1916148061064d575061064c82611a01565b5b9050919050565b600e60205280600052604060002060009150905080600001805461067790613e11565b80601f01602080910402602001604051908101604052809291908181526020018280546106a390613e11565b80156106f05780601f106106c5576101008083540402835291602001916106f0565b820191906000526020600020905b8154815290600101906020018083116106d357829003601f168201915b50505050509080600101805461070590613e11565b80601f016020809104026020016040519081016040528092919081815260200182805461073190613e11565b801561077e5780601f106107535761010080835404028352916020019161077e565b820191906000526020600020905b81548152906001019060200180831161076157829003601f168201915b50505050509080600201805461079390613e11565b80601f01602080910402602001604051908101604052809291908181526020018280546107bf90613e11565b801561080c5780601f106107e15761010080835404028352916020019161080c565b820191906000526020600020905b8154815290600101906020018083116107ef57829003601f168201915b50505050509080600301805461082190613e11565b80601f016020809104026020016040519081016040528092919081815260200182805461084d90613e11565b801561089a5780601f1061086f5761010080835404028352916020019161089a565b820191906000526020600020905b81548152906001019060200180831161087d57829003601f168201915b5050505050908060040180546108af90613e11565b80601f01602080910402602001604051908101604052809291908181526020018280546108db90613e11565b80156109285780601f106108fd57610100808354040283529160200191610928565b820191906000526020600020905b81548152906001019060200180831161090b57829003601f168201915b50505050509080600501805461093d90613e11565b80601f016020809104026020016040519081016040528092919081815260200182805461096990613e11565b80156109b65780601f1061098b576101008083540402835291602001916109b6565b820191906000526020600020905b81548152906001019060200180831161099957829003601f168201915b5050505050908060060154905087565b6060600080546109d590613e11565b80601f0160208091040260200160405190810160405280929190818152602001828054610a0190613e11565b8015610a4e5780601f10610a2357610100808354040283529160200191610a4e565b820191906000526020600020905b815481529060010190602001808311610a3157829003601f168201915b5050505050905090565b6000610a6382611ae3565b610aa2576040517f08c379a0000000000000000000000000000000000000000000000000000000008152600401610a9990613af1565b60405180910390fd5b6004600083815260200190815260200160002060009054906101000a900473ffffffffffffffffffffffffffffffffffffffff169050919050565b6000610ae882610f8e565b90508073ffffffffffffffffffffffffffffffffffffffff168373ffffffffffffffffffffffffffffffffffffffff161415610b59576040517f08c379a0000000000000000000000000000000000000000000000000000000008152600401610b5090613b51565b60405180910390fd5b8073ffffffffffffffffffffffffffffffffffffffff16610b78611b4f565b73ffffffffffffffffffffffffffffffffffffffff161480610ba75750610ba681610ba1611b4f565b6118f6565b5b610be6576040517f08c379a0000000000000000000000000000000000000000000000000000000008152600401610bdd90613a51565b60405180910390fd5b610bf08383611b57565b505050565b60006011600083815260200190815260200160002060006101000a81548160ff02191690831515021790555060006010600083815260200190815260200160002060006101000a81548160ff02191690831515021790555050565b6000600880549050905090565b610c6e610c68611b4f565b82611c10565b610cad576040517f08c379a0000000000000000000000000000000000000000000000000000000008152600401610ca490613b71565b60405180910390fd5b610cb8838383611cee565b505050565b600d8181548110610ccd57600080fd5b906000526020600020016000915090508054610ce890613e11565b80601f0160208091040260200160405190810160405280929190818152602001828054610d1490613e11565b8015610d615780601f10610d3657610100808354040283529160200191610d61565b820191906000526020600020905b815481529060010190602001808311610d4457829003601f168201915b505050505081565b6000610d7483611040565b8210610db5576040517f08c379a0000000000000000000000000000000000000000000000000000000008152600401610dac90613991565b60405180910390fd5b600660008473ffffffffffffffffffffffffffffffffffffffff1673ffffffffffffffffffffffffffffffffffffffff168152602001908152602001600020600083815260200190815260200160002054905092915050565b600015156011600085815260200190815260200160002060009054906101000a900460ff16151514610e3f57600080fd5b60016010600085815260200190815260200160002060006101000a81548160ff021916908315150217905550610e75848461129d565b610e7d612a84565b8281600001818152505081816020018181525050806012600086815260200190815260200160002060008201518160000155602082015181600101559050505050505050565b610ede8383836040518060200160405280600081525061142c565b505050565b6000610eef8383611c10565b905092915050565b6000610f01610c50565b8210610f42576040517f08c379a0000000000000000000000000000000000000000000000000000000008152600401610f3990613b91565b60405180910390fd5b60088281548110610f7c577f4e487b7100000000000000000000000000000000000000000000000000000000600052603260045260246000fd5b90600052602060002001549050919050565b6000806002600084815260200190815260200160002060009054906101000a900473ffffffffffffffffffffffffffffffffffffffff169050600073ffffffffffffffffffffffffffffffffffffffff168173ffffffffffffffffffffffffffffffffffffffff161415611037576040517f08c379a000000000000000000000000000000000000000000000000000000000815260040161102e90613a91565b60405180910390fd5b80915050919050565b60008073ffffffffffffffffffffffffffffffffffffffff168273ffffffffffffffffffffffffffffffffffffffff1614156110b1576040517f08c379a00000000000000000000000000000000000000000000000000000000081526004016110a890613a71565b60405180910390fd5b600360008373ffffffffffffffffffffffffffffffffffffffff1673ffffffffffffffffffffffffffffffffffffffff168152602001908152602001600020549050919050565b60003373ffffffffffffffffffffffffffffffffffffffff1661111a84610f8e565b73ffffffffffffffffffffffffffffffffffffffff161461113a57600080fd5b81600e6000858152602001908152602001600020600601819055506001905092915050565b600b818154811061116f57600080fd5b90600052602060002001600091509050805461118a90613e11565b80601f01602080910402602001604051908101604052809291908181526020018280546111b690613e11565b80156112035780601f106111d857610100808354040283529160200191611203565b820191906000526020600020905b8154815290600101906020018083116111e657829003601f168201915b505050505081565b60606001805461121a90613e11565b80601f016020809104026020016040519081016040528092919081815260200182805461124690613e11565b80156112935780601f1061126857610100808354040283529160200191611293565b820191906000526020600020905b81548152906001019060200180831161127657829003601f168201915b5050505050905090565b6112a78282610add565b5050565b6112b3611b4f565b73ffffffffffffffffffffffffffffffffffffffff168273ffffffffffffffffffffffffffffffffffffffff161415611321576040517f08c379a000000000000000000000000000000000000000000000000000000000815260040161131890613a11565b60405180910390fd5b806005600061132e611b4f565b73ffffffffffffffffffffffffffffffffffffffff1673ffffffffffffffffffffffffffffffffffffffff16815260200190815260200160002060008473ffffffffffffffffffffffffffffffffffffffff1673ffffffffffffffffffffffffffffffffffffffff16815260200190815260200160002060006101000a81548160ff0219169083151502179055508173ffffffffffffffffffffffffffffffffffffffff166113db611b4f565b73ffffffffffffffffffffffffffffffffffffffff167f17307eab39ab6107e8899845ad3d59bd9653f200f220920489ca2b5937696c318360405161142091906138bb565b60405180910390a35050565b61143d611437611b4f565b83611c10565b61147c576040517f08c379a000000000000000000000000000000000000000000000000000000000815260040161147390613b71565b60405180910390fd5b61148884848484611f4a565b50505050565b600c818154811061149e57600080fd5b9060005260206000200160009150905080546114b990613e11565b80601f01602080910402602001604051908101604052809291908181526020018280546114e590613e11565b80156115325780601f1061150757610100808354040283529160200191611532565b820191906000526020600020905b81548152906001019060200180831161151557829003601f168201915b505050505081565b606061154582611ae3565b611584576040517f08c379a000000000000000000000000000000000000000000000000000000000815260040161157b90613ad1565b60405180910390fd5b6000600a600084815260200190815260200160002080546115a490613e11565b80601f01602080910402602001604051908101604052809291908181526020018280546115d090613e11565b801561161d5780601f106115f25761010080835404028352916020019161161d565b820191906000526020600020905b81548152906001019060200180831161160057829003601f168201915b50505050509050600061162e611fa6565b9050600081511415611644578192505050611687565b600082511115611679578082604051602001611661929190613830565b60405160208183030381529060405292505050611687565b61168284611fbd565b925050505b919050565b6000600f8860405161169e9190613819565b908152602001604051809103902060009054906101000a900460ff16156116c457600080fd5b6116cc612a9e565b888160000181905250878160200181905250868160400181905250858160600181905250848160800181905250838160a00181905250828160c0018181525050600b89908060018154018082558091505060019003906000526020600020016000909190919091509080519060200190611747929190612adb565b50600c86908060018154018082558091505060019003906000526020600020016000909190919091509080519060200190611783929190612adb565b50600d889080600181540180825580915050600190039060005260206000200160009091909190915090805190602001906117bf929190612adb565b5060006001600b805490506117d49190613d27565b905081600e60008381526020019081526020016000206000820151816000019080519060200190611806929190612adb565b506020820151816001019080519060200190611823929190612adb565b506040820151816002019080519060200190611840929190612adb565b50606082015181600301908051906020019061185d929190612adb565b50608082015181600401908051906020019061187a929190612adb565b5060a0820151816005019080519060200190611897929190612adb565b5060c082015181600601559050506118af3382612064565b6001600f8b6040516118c19190613819565b908152602001604051809103902060006101000a81548160ff0219169083151502179055508092505050979650505050505050565b6000600560008473ffffffffffffffffffffffffffffffffffffffff1673ffffffffffffffffffffffffffffffffffffffff16815260200190815260200160002060008373ffffffffffffffffffffffffffffffffffffffff1673ffffffffffffffffffffffffffffffffffffffff16815260200190815260200160002060009054906101000a900460ff16905092915050565b600015156010600084815260200190815260200160002060009054906101000a900460ff161515146119bb57600080fd5b60016011600084815260200190815260200160002060006101000a81548160ff0219169083151502179055506119f182826110f8565b506119fc838361129d565b505050565b60007f80ac58cd000000000000000000000000000000000000000000000000000000007bffffffffffffffffffffffffffffffffffffffffffffffffffffffff1916827bffffffffffffffffffffffffffffffffffffffffffffffffffffffff19161480611acc57507f5b5e139f000000000000000000000000000000000000000000000000000000007bffffffffffffffffffffffffffffffffffffffffffffffffffffffff1916827bffffffffffffffffffffffffffffffffffffffffffffffffffffffff1916145b80611adc5750611adb82612232565b5b9050919050565b60008073ffffffffffffffffffffffffffffffffffffffff166002600084815260200190815260200160002060009054906101000a900473ffffffffffffffffffffffffffffffffffffffff1673ffffffffffffffffffffffffffffffffffffffff1614159050919050565b600033905090565b816004600083815260200190815260200160002060006101000a81548173ffffffffffffffffffffffffffffffffffffffff021916908373ffffffffffffffffffffffffffffffffffffffff160217905550808273ffffffffffffffffffffffffffffffffffffffff16611bca83610f8e565b73ffffffffffffffffffffffffffffffffffffffff167f8c5be1e5ebec7d5bd14f71427d1e84f3dd0314c0f7b2291e5b200ac8c7c3b92560405160405180910390a45050565b6000611c1b82611ae3565b611c5a576040517f08c379a0000000000000000000000000000000000000000000000000000000008152600401611c5190613a31565b60405180910390fd5b6000611c6583610f8e565b90508073ffffffffffffffffffffffffffffffffffffffff168473ffffffffffffffffffffffffffffffffffffffff161480611cd457508373ffffffffffffffffffffffffffffffffffffffff16611cbc84610a58565b73ffffffffffffffffffffffffffffffffffffffff16145b80611ce55750611ce481856118f6565b5b91505092915050565b8273ffffffffffffffffffffffffffffffffffffffff16611d0e82610f8e565b73ffffffffffffffffffffffffffffffffffffffff1614611d64576040517f08c379a0000000000000000000000000000000000000000000000000000000008152600401611d5b90613b11565b60405180910390fd5b600073ffffffffffffffffffffffffffffffffffffffff168273ffffffffffffffffffffffffffffffffffffffff161415611dd4576040517f08c379a0000000000000000000000000000000000000000000000000000000008152600401611dcb906139f1565b60405180910390fd5b611ddf83838361229c565b611dea600082611b57565b6001600360008573ffffffffffffffffffffffffffffffffffffffff1673ffffffffffffffffffffffffffffffffffffffff1681526020019081526020016000206000828254611e3a9190613d27565b925050819055506001600360008473ffffffffffffffffffffffffffffffffffffffff1673ffffffffffffffffffffffffffffffffffffffff1681526020019081526020016000206000828254611e919190613ca0565b92505081905550816002600083815260200190815260200160002060006101000a81548173ffffffffffffffffffffffffffffffffffffffff021916908373ffffffffffffffffffffffffffffffffffffffff160217905550808273ffffffffffffffffffffffffffffffffffffffff168473ffffffffffffffffffffffffffffffffffffffff167fddf252ad1be2c89b69c2b068fc378daa952ba7f163c4a11628f55a4df523b3ef60405160405180910390a4505050565b611f55848484611cee565b611f61848484846123b0565b611fa0576040517f08c379a0000000000000000000000000000000000000000000000000000000008152600401611f97906139b1565b60405180910390fd5b50505050565b606060405180602001604052806000815250905090565b6060611fc882611ae3565b612007576040517f08c379a0000000000000000000000000000000000000000000000000000000008152600401611ffe90613b31565b60405180910390fd5b6000612011611fa6565b90506000815111612031576040518060200160405280600081525061205c565b8061203b84612547565b60405160200161204c929190613830565b6040516020818303038152906040525b915050919050565b600073ffffffffffffffffffffffffffffffffffffffff168273ffffffffffffffffffffffffffffffffffffffff1614156120d4576040517f08c379a00000000000000000000000000000000000000000000000000000000081526004016120cb90613ab1565b60405180910390fd5b6120dd81611ae3565b1561211d576040517f08c379a0000000000000000000000000000000000000000000000000000000008152600401612114906139d1565b60405180910390fd5b6121296000838361229c565b6001600360008473ffffffffffffffffffffffffffffffffffffffff1673ffffffffffffffffffffffffffffffffffffffff16815260200190815260200160002060008282546121799190613ca0565b92505081905550816002600083815260200190815260200160002060006101000a81548173ffffffffffffffffffffffffffffffffffffffff021916908373ffffffffffffffffffffffffffffffffffffffff160217905550808273ffffffffffffffffffffffffffffffffffffffff16600073ffffffffffffffffffffffffffffffffffffffff167fddf252ad1be2c89b69c2b068fc378daa952ba7f163c4a11628f55a4df523b3ef60405160405180910390a45050565b60007f01ffc9a7000000000000000000000000000000000000000000000000000000007bffffffffffffffffffffffffffffffffffffffffffffffffffffffff1916827bffffffffffffffffffffffffffffffffffffffffffffffffffffffff1916149050919050565b6122a78383836126f4565b600073ffffffffffffffffffffffffffffffffffffffff168373ffffffffffffffffffffffffffffffffffffffff1614156122ea576122e5816126f9565b612329565b8173ffffffffffffffffffffffffffffffffffffffff168373ffffffffffffffffffffffffffffffffffffffff1614612328576123278382612742565b5b5b600073ffffffffffffffffffffffffffffffffffffffff168273ffffffffffffffffffffffffffffffffffffffff16141561236c57612367816128af565b6123ab565b8273ffffffffffffffffffffffffffffffffffffffff168273ffffffffffffffffffffffffffffffffffffffff16146123aa576123a982826129f2565b5b5b505050565b60006123d18473ffffffffffffffffffffffffffffffffffffffff16612a71565b1561253a578373ffffffffffffffffffffffffffffffffffffffff1663150b7a026123fa611b4f565b8786866040518563ffffffff1660e01b815260040161241c949392919061386f565b602060405180830381600087803b15801561243657600080fd5b505af192505050801561246757506040513d601f19601f820116820180604052508101906124649190612f39565b60015b6124ea573d8060008114612497576040519150601f19603f3d011682016040523d82523d6000602084013e61249c565b606091505b506000815114156124e2576040517f08c379a00000000000000000000000000000000000000000000000000000000081526004016124d9906139b1565b60405180910390fd5b805181602001fd5b63150b7a0260e01b7bffffffffffffffffffffffffffffffffffffffffffffffffffffffff1916817bffffffffffffffffffffffffffffffffffffffffffffffffffffffff19161491505061253f565b600190505b949350505050565b6060600082141561258f576040518060400160405280600181526020017f300000000000000000000000000000000000000000000000000000000000000081525090506126ef565b600082905060005b600082146125c15780806125aa90613e43565b915050600a826125ba9190613cf6565b9150612597565b60008167ffffffffffffffff811115612603577f4e487b7100000000000000000000000000000000000000000000000000000000600052604160045260246000fd5b6040519080825280601f01601f1916602001820160405280156126355781602001600182028036833780820191505090505b5090505b600085146126e85760018261264e9190613d27565b9150600a8561265d9190613e8c565b60306126699190613ca0565b60f81b8183815181106126a5577f4e487b7100000000000000000000000000000000000000000000000000000000600052603260045260246000fd5b60200101907effffffffffffffffffffffffffffffffffffffffffffffffffffffffffffff1916908160001a905350600a856126e19190613cf6565b9450612639565b8093505050505b919050565b505050565b6008805490506009600083815260200190815260200160002081905550600881908060018154018082558091505060019003906000526020600020016000909190919091505550565b6000600161274f84611040565b6127599190613d27565b905060006007600084815260200190815260200160002054905081811461283e576000600660008673ffffffffffffffffffffffffffffffffffffffff1673ffffffffffffffffffffffffffffffffffffffff168152602001908152602001600020600084815260200190815260200160002054905080600660008773ffffffffffffffffffffffffffffffffffffffff1673ffffffffffffffffffffffffffffffffffffffff168152602001908152602001600020600084815260200190815260200160002081905550816007600083815260200190815260200160002081905550505b6007600084815260200190815260200160002060009055600660008573ffffffffffffffffffffffffffffffffffffffff1673ffffffffffffffffffffffffffffffffffffffff16815260200190815260200160002060008381526020019081526020016000206000905550505050565b600060016008805490506128c39190613d27565b9050600060096000848152602001908152602001600020549050600060088381548110612919577f4e487b7100000000000000000000000000000000000000000000000000000000600052603260045260246000fd5b906000526020600020015490508060088381548110612961577f4e487b7100000000000000000000000000000000000000000000000000000000600052603260045260246000fd5b9060005260206000200181905550816009600083815260200190815260200160002081905550600960008581526020019081526020016000206000905560088054806129d6577f4e487b7100000000000000000000000000000000000000000000000000000000600052603160045260246000fd5b6001900381819060005260206000200160009055905550505050565b60006129fd83611040565b905081600660008573ffffffffffffffffffffffffffffffffffffffff1673ffffffffffffffffffffffffffffffffffffffff168152602001908152602001600020600083815260200190815260200160002081905550806007600084815260200190815260200160002081905550505050565b600080823b905060008111915050919050565b604051806040016040528060008152602001600081525090565b6040518060e00160405280606081526020016060815260200160608152602001606081526020016060815260200160608152602001600081525090565b828054612ae790613e11565b90600052602060002090601f016020900481019282612b095760008555612b50565b82601f10612b2257805160ff1916838001178555612b50565b82800160010185558215612b50579182015b82811115612b4f578251825591602001919060010190612b34565b5b509050612b5d9190612b61565b5090565b5b80821115612b7a576000816000905550600101612b62565b5090565b6000612b91612b8c84613bfd565b613bcc565b905082815260208101848484011115612ba957600080fd5b612bb4848285613dcf565b509392505050565b6000612bcf612bca84613c2d565b613bcc565b905082815260208101848484011115612be757600080fd5b612bf2848285613dcf565b509392505050565b600081359050612c0981613f8a565b92915050565b600081359050612c1e81613fa1565b92915050565b600081359050612c3381613fb8565b92915050565b600081519050612c4881613fb8565b92915050565b600082601f830112612c5f57600080fd5b8135612c6f848260208601612b7e565b91505092915050565b600082601f830112612c8957600080fd5b8135612c99848260208601612bbc565b91505092915050565b600081359050612cb181613fcf565b92915050565b600060208284031215612cc957600080fd5b6000612cd784828501612bfa565b91505092915050565b60008060408385031215612cf357600080fd5b6000612d0185828601612bfa565b9250506020612d1285828601612bfa565b9150509250929050565b600080600060608486031215612d3157600080fd5b6000612d3f86828701612bfa565b9350506020612d5086828701612bfa565b9250506040612d6186828701612ca2565b9150509250925092565b60008060008060808587031215612d8157600080fd5b6000612d8f87828801612bfa565b9450506020612da087828801612bfa565b9350506040612db187828801612ca2565b925050606085013567ffffffffffffffff811115612dce57600080fd5b612dda87828801612c4e565b91505092959194509250565b60008060408385031215612df957600080fd5b6000612e0785828601612bfa565b9250506020612e1885828601612c0f565b9150509250929050565b60008060408385031215612e3557600080fd5b6000612e4385828601612bfa565b9250506020612e5485828601612ca2565b9150509250929050565b600080600060608486031215612e7357600080fd5b6000612e8186828701612bfa565b9350506020612e9286828701612ca2565b9250506040612ea386828701612ca2565b9150509250925092565b60008060008060808587031215612ec357600080fd5b6000612ed187828801612bfa565b9450506020612ee287828801612ca2565b9350506040612ef387828801612ca2565b9250506060612f0487828801612ca2565b91505092959194509250565b600060208284031215612f2257600080fd5b6000612f3084828501612c24565b91505092915050565b600060208284031215612f4b57600080fd5b6000612f5984828501612c39565b91505092915050565b600080600080600080600060e0888a031215612f7d57600080fd5b600088013567ffffffffffffffff811115612f9757600080fd5b612fa38a828b01612c78565b975050602088013567ffffffffffffffff811115612fc057600080fd5b612fcc8a828b01612c78565b965050604088013567ffffffffffffffff811115612fe957600080fd5b612ff58a828b01612c78565b955050606088013567ffffffffffffffff81111561301257600080fd5b61301e8a828b01612c78565b945050608088013567ffffffffffffffff81111561303b57600080fd5b6130478a828b01612c78565b93505060a088013567ffffffffffffffff81111561306457600080fd5b6130708a828b01612c78565b92505060c06130818a828b01612ca2565b91505092959891949750929550565b6000602082840312156130a257600080fd5b60006130b084828501612ca2565b91505092915050565b600080604083850312156130cc57600080fd5b60006130da85828601612ca2565b92505060206130eb85828601612ca2565b9150509250929050565b6130fe81613d5b565b82525050565b61310d81613d6d565b82525050565b600061311e82613c5d565b6131288185613c73565b9350613138818560208601613dde565b61314181613f79565b840191505092915050565b600061315782613c68565b6131618185613c84565b9350613171818560208601613dde565b61317a81613f79565b840191505092915050565b600061319082613c68565b61319a8185613c95565b93506131aa818560208601613dde565b80840191505092915050565b60006131c3602b83613c84565b91507f455243373231456e756d657261626c653a206f776e657220696e646578206f7560008301527f74206f6620626f756e64730000000000000000000000000000000000000000006020830152604082019050919050565b6000613229603283613c84565b91507f4552433732313a207472616e7366657220746f206e6f6e20455243373231526560008301527f63656976657220696d706c656d656e74657200000000000000000000000000006020830152604082019050919050565b600061328f601c83613c84565b91507f4552433732313a20746f6b656e20616c7265616479206d696e746564000000006000830152602082019050919050565b60006132cf602483613c84565b91507f4552433732313a207472616e7366657220746f20746865207a65726f2061646460008301527f72657373000000000000000000000000000000000000000000000000000000006020830152604082019050919050565b6000613335601983613c84565b91507f4552433732313a20617070726f766520746f2063616c6c6572000000000000006000830152602082019050919050565b6000613375602c83613c84565b91507f4552433732313a206f70657261746f7220717565727920666f72206e6f6e657860008301527f697374656e7420746f6b656e00000000000000000000000000000000000000006020830152604082019050919050565b60006133db603883613c84565b91507f4552433732313a20617070726f76652063616c6c6572206973206e6f74206f7760008301527f6e6572206e6f7220617070726f76656420666f7220616c6c00000000000000006020830152604082019050919050565b6000613441602a83613c84565b91507f4552433732313a2062616c616e636520717565727920666f7220746865207a6560008301527f726f2061646472657373000000000000000000000000000000000000000000006020830152604082019050919050565b60006134a7602983613c84565b91507f4552433732313a206f776e657220717565727920666f72206e6f6e657869737460008301527f656e7420746f6b656e00000000000000000000000000000000000000000000006020830152604082019050919050565b600061350d602083613c84565b91507f4552433732313a206d696e7420746f20746865207a65726f20616464726573736000830152602082019050919050565b600061354d603183613c84565b91507f45524337323155524953746f726167653a2055524920717565727920666f722060008301527f6e6f6e6578697374656e7420746f6b656e0000000000000000000000000000006020830152604082019050919050565b60006135b3602c83613c84565b91507f4552433732313a20617070726f76656420717565727920666f72206e6f6e657860008301527f697374656e7420746f6b656e00000000000000000000000000000000000000006020830152604082019050919050565b6000613619602983613c84565b91507f4552433732313a207472616e73666572206f6620746f6b656e2074686174206960008301527f73206e6f74206f776e00000000000000000000000000000000000000000000006020830152604082019050919050565b600061367f602f83613c84565b91507f4552433732314d657461646174613a2055524920717565727920666f72206e6f60008301527f6e6578697374656e7420746f6b656e00000000000000000000000000000000006020830152604082019050919050565b60006136e5602183613c84565b91507f4552433732313a20617070726f76616c20746f2063757272656e74206f776e6560008301527f72000000000000000000000000000000000000000000000000000000000000006020830152604082019050919050565b600061374b603183613c84565b91507f4552433732313a207472616e736665722063616c6c6572206973206e6f74206f60008301527f776e6572206e6f7220617070726f7665640000000000000000000000000000006020830152604082019050919050565b60006137b1602c83613c84565b91507f455243373231456e756d657261626c653a20676c6f62616c20696e646578206f60008301527f7574206f6620626f756e647300000000000000000000000000000000000000006020830152604082019050919050565b61381381613dc5565b82525050565b60006138258284613185565b915081905092915050565b600061383c8285613185565b91506138488284613185565b91508190509392505050565b600060208201905061386960008301846130f5565b92915050565b600060808201905061388460008301876130f5565b61389160208301866130f5565b61389e604083018561380a565b81810360608301526138b08184613113565b905095945050505050565b60006020820190506138d06000830184613104565b92915050565b600060208201905081810360008301526138f0818461314c565b905092915050565b600060e0820190508181036000830152613912818a61314c565b90508181036020830152613926818961314c565b9050818103604083015261393a818861314c565b9050818103606083015261394e818761314c565b90508181036080830152613962818661314c565b905081810360a0830152613976818561314c565b905061398560c083018461380a565b98975050505050505050565b600060208201905081810360008301526139aa816131b6565b9050919050565b600060208201905081810360008301526139ca8161321c565b9050919050565b600060208201905081810360008301526139ea81613282565b9050919050565b60006020820190508181036000830152613a0a816132c2565b9050919050565b60006020820190508181036000830152613a2a81613328565b9050919050565b60006020820190508181036000830152613a4a81613368565b9050919050565b60006020820190508181036000830152613a6a816133ce565b9050919050565b60006020820190508181036000830152613a8a81613434565b9050919050565b60006020820190508181036000830152613aaa8161349a565b9050919050565b60006020820190508181036000830152613aca81613500565b9050919050565b60006020820190508181036000830152613aea81613540565b9050919050565b60006020820190508181036000830152613b0a816135a6565b9050919050565b60006020820190508181036000830152613b2a8161360c565b9050919050565b60006020820190508181036000830152613b4a81613672565b9050919050565b60006020820190508181036000830152613b6a816136d8565b9050919050565b60006020820190508181036000830152613b8a8161373e565b9050919050565b60006020820190508181036000830152613baa816137a4565b9050919050565b6000602082019050613bc6600083018461380a565b92915050565b6000604051905081810181811067ffffffffffffffff82111715613bf357613bf2613f4a565b5b8060405250919050565b600067ffffffffffffffff821115613c1857613c17613f4a565b5b601f19601f8301169050602081019050919050565b600067ffffffffffffffff821115613c4857613c47613f4a565b5b601f19601f8301169050602081019050919050565b600081519050919050565b600081519050919050565b600082825260208201905092915050565b600082825260208201905092915050565b600081905092915050565b6000613cab82613dc5565b9150613cb683613dc5565b9250827fffffffffffffffffffffffffffffffffffffffffffffffffffffffffffffffff03821115613ceb57613cea613ebd565b5b828201905092915050565b6000613d0182613dc5565b9150613d0c83613dc5565b925082613d1c57613d1b613eec565b5b828204905092915050565b6000613d3282613dc5565b9150613d3d83613dc5565b925082821015613d5057613d4f613ebd565b5b828203905092915050565b6000613d6682613da5565b9050919050565b60008115159050919050565b60007fffffffff0000000000000000000000000000000000000000000000000000000082169050919050565b600073ffffffffffffffffffffffffffffffffffffffff82169050919050565b6000819050919050565b82818337600083830152505050565b60005b83811015613dfc578082015181840152602081019050613de1565b83811115613e0b576000848401525b50505050565b60006002820490506001821680613e2957607f821691505b60208210811415613e3d57613e3c613f1b565b5b50919050565b6000613e4e82613dc5565b91507fffffffffffffffffffffffffffffffffffffffffffffffffffffffffffffffff821415613e8157613e80613ebd565b5b600182019050919050565b6000613e9782613dc5565b9150613ea283613dc5565b925082613eb257613eb1613eec565b5b828206905092915050565b7f4e487b7100000000000000000000000000000000000000000000000000000000600052601160045260246000fd5b7f4e487b7100000000000000000000000000000000000000000000000000000000600052601260045260246000fd5b7f4e487b7100000000000000000000000000000000000000000000000000000000600052602260045260246000fd5b7f4e487b7100000000000000000000000000000000000000000000000000000000600052604160045260246000fd5b6000601f19601f8301169050919050565b613f9381613d5b565b8114613f9e57600080fd5b50565b613faa81613d6d565b8114613fb557600080fd5b50565b613fc181613d79565b8114613fcc57600080fd5b50565b613fd881613dc5565b8114613fe357600080fd5b5056fea2646970667358221220fc069e7acddb68ba2a9897f4c6b3bfaa0e3b80ec439c8645005c41e09b68e63364736f6c63430008000033",
  "immutableReferences": {},
  "source": "pragma solidity >0.5.0;\r\n\r\nimport \"../openzeppelin/token/ERC721/extensions/ERC721Full.sol\";\r\nimport \"../openzeppelin/token/ERC721/extensions/IERC721Metadata.sol\";\r\n\r\n// Syfin SYF NFTs on Fantom\r\n// https://t.me/fantomsyfin\r\n// https://sy.finance\r\n// Welcome to the new Metaverse!\r\n\r\ncontract SyfinNFT is IERC721Metadata, ERC721Full{\r\n\r\n  struct metadata { \r\n  string name;\r\n  string mimeType;\r\n  string nftData;\r\n  string category;\r\n  string description;\r\n  string url;\r\n  uint price;\r\n  }\r\n\r\n  string[] public images;\r\n  string[] public categories;\r\n  string[] public mimetypes;\r\n  mapping(uint => metadata) public imageData;\r\n  mapping(string => bool) _imageExists;\r\n\r\n  mapping(uint => bool) _listedForAuction;\r\n  mapping(uint => bool) _listedForSale;\r\n\r\n\r\n  struct auctionData { \r\n  uint price;\r\n  uint time;\r\n  }\r\n  mapping(uint => auctionData) tokenAuction;\r\n\r\n\r\n  constructor() ERC721(\"Syfin_NFT\", \"SYFNFT\") public {}\r\n\r\n  function mint(string memory _name, string memory _mimeType, string memory _nftData, string memory _category, string memory _description, string memory _url, uint _price) public returns (uint){\r\n    require(!_imageExists[_name]);\r\n\r\n    metadata memory md;\r\n    md.name = _name;\r\n    md.mimeType = _mimeType;\r\n    md.nftData = _nftData;\r\n    md.category = _category;\r\n    md.description = _description;\r\n    md.url = _url;\r\n    md.price = _price;\r\n    \r\n    images.push(_name);\r\n    categories.push(_category);\r\n    mimetypes.push(_mimeType);\r\n    uint _id = images.length -1;\r\n    imageData[_id] = md;\r\n    _mint(msg.sender, _id);\r\n    _imageExists[_name] = true;\r\n\r\n    return _id;\r\n  }\r\n\r\n  function approveNFT(address _to, uint _tokenId) public {\r\n    approve(_to, _tokenId);\r\n  }\r\n  \r\n  function isApprovedOrOwner(address _address, uint _tokenId) public returns (bool){\r\n    return _isApprovedOrOwner(_address, _tokenId);\r\n  }\r\n\r\n  function updatePrice(uint _id, uint _price) public returns (bool){\r\n    require(ownerOf(_id) == msg.sender);\r\n    imageData[_id].price = _price;\r\n\r\n    return true;\r\n  }\r\n\r\n  function approveForSale(address _to, uint _tokenId, uint _price) public {\r\n    require(_listedForAuction[_tokenId] == false);\r\n    _listedForSale[_tokenId] = true;\r\n    updatePrice(_tokenId, _price);\r\n    approveNFT(_to, _tokenId);\r\n  }\r\n\r\n  function approveForAuction(address _to, uint _tokenId, uint _price, uint _time) public {\r\n    require(_listedForSale[_tokenId] == false);\r\n    _listedForAuction[_tokenId] = true;\r\n    // updatePrice(_tokenId, _price);\r\n    approveNFT(_to, _tokenId);\r\n\r\n    auctionData memory ad;\r\n    ad.price = _price;\r\n    ad.time = _time;\r\n\r\n    tokenAuction[_tokenId] = ad;\r\n  }\r\n\r\n  function nftSold(uint _tokenId) public {\r\n    _listedForSale[_tokenId] = false;\r\n    _listedForAuction[_tokenId] = false;\r\n  }\r\n\r\n}",
  "sourcePath": "C:\\Users\\carse\\Dropbox\\Syfin\\nft-market-master\\src\\contracts\\SyfinNFT.sol",
  "compiler": {
    "name": "solc",
    "version": "0.8.0+commit.c7dfd78e.Emscripten.clang"
  },
  "schemaVersion": "3.4.3",
  "updatedAt": "2021-08-23T11:41:21.714Z",
  "networkType": "ethereum",
  "devdoc": {
    "kind": "dev",
    "methods": {
      "approve(address,uint256)": {
        "details": "See {IERC721-approve}."
      },
      "balanceOf(address)": {
        "details": "See {IERC721-balanceOf}."
      },
      "getApproved(uint256)": {
        "details": "See {IERC721-getApproved}."
      },
      "isApprovedForAll(address,address)": {
        "details": "See {IERC721-isApprovedForAll}."
      },
      "name()": {
        "details": "See {IERC721Metadata-name}."
      },
      "ownerOf(uint256)": {
        "details": "See {IERC721-ownerOf}."
      },
      "safeTransferFrom(address,address,uint256)": {
        "details": "See {IERC721-safeTransferFrom}."
      },
      "safeTransferFrom(address,address,uint256,bytes)": {
        "details": "See {IERC721-safeTransferFrom}."
      },
      "setApprovalForAll(address,bool)": {
        "details": "See {IERC721-setApprovalForAll}."
      },
      "supportsInterface(bytes4)": {
        "details": "See {IERC165-supportsInterface}."
      },
      "symbol()": {
        "details": "See {IERC721Metadata-symbol}."
      },
      "tokenByIndex(uint256)": {
        "details": "See {IERC721Enumerable-tokenByIndex}."
      },
      "tokenOfOwnerByIndex(address,uint256)": {
        "details": "See {IERC721Enumerable-tokenOfOwnerByIndex}."
      },
      "tokenURI(uint256)": {
        "details": "See {IERC721Metadata-tokenURI}."
      },
      "totalSupply()": {
        "details": "See {IERC721Enumerable-totalSupply}."
      },
      "transferFrom(address,address,uint256)": {
        "details": "See {IERC721-transferFrom}."
      }
    },
    "version": 1
  },
  "userdoc": {
    "kind": "user",
    "methods": {},
    "version": 1
  }
}