{
  "contractName": "SyfinNFTAds",
  "abi": [
    {
      "inputs": [
        {
          "internalType": "contract SyfinNFT",
          "name": "_syfinNFT",
          "type": "address"
        }
      ],
      "stateMutability": "nonpayable",
      "type": "constructor"
    },
    {
      "anonymous": false,
      "inputs": [
        {
          "indexed": false,
          "internalType": "uint256",
          "name": "_tokenId",
          "type": "uint256"
        },
        {
          "indexed": false,
          "internalType": "uint256",
          "name": "_adId",
          "type": "uint256"
        },
        {
          "indexed": false,
          "internalType": "address",
          "name": "_buyer",
          "type": "address"
        },
        {
          "indexed": false,
          "internalType": "uint256",
          "name": "_timestamp",
          "type": "uint256"
        },
        {
          "indexed": false,
          "internalType": "uint256",
          "name": "_until",
          "type": "uint256"
        }
      ],
      "name": "NewAdvertisement",
      "type": "event"
    },
    {
      "inputs": [],
      "name": "SYF",
      "outputs": [
        {
          "internalType": "address",
          "name": "",
          "type": "address"
        }
      ],
      "stateMutability": "view",
      "type": "function"
    },
    {
      "inputs": [
        {
          "internalType": "uint256",
          "name": "",
          "type": "uint256"
        }
      ],
      "name": "adOwnerList",
      "outputs": [
        {
          "internalType": "uint256",
          "name": "adId",
          "type": "uint256"
        },
        {
          "internalType": "uint256",
          "name": "nftId",
          "type": "uint256"
        },
        {
          "internalType": "address",
          "name": "buyer",
          "type": "address"
        },
        {
          "internalType": "uint256",
          "name": "timestamp",
          "type": "uint256"
        },
        {
          "internalType": "uint256",
          "name": "until",
          "type": "uint256"
        }
      ],
      "stateMutability": "view",
      "type": "function"
    },
    {
      "inputs": [
        {
          "internalType": "address",
          "name": "",
          "type": "address"
        }
      ],
      "name": "adOwners",
      "outputs": [
        {
          "internalType": "uint256",
          "name": "adId",
          "type": "uint256"
        },
        {
          "internalType": "uint256",
          "name": "nftId",
          "type": "uint256"
        },
        {
          "internalType": "address",
          "name": "buyer",
          "type": "address"
        },
        {
          "internalType": "uint256",
          "name": "timestamp",
          "type": "uint256"
        },
        {
          "internalType": "uint256",
          "name": "until",
          "type": "uint256"
        }
      ],
      "stateMutability": "view",
      "type": "function"
    },
    {
      "inputs": [
        {
          "internalType": "uint256",
          "name": "",
          "type": "uint256"
        }
      ],
      "name": "ads",
      "outputs": [
        {
          "internalType": "uint256",
          "name": "adId",
          "type": "uint256"
        },
        {
          "internalType": "uint256",
          "name": "upvotes",
          "type": "uint256"
        },
        {
          "internalType": "uint256",
          "name": "nftId",
          "type": "uint256"
        },
        {
          "internalType": "address",
          "name": "buyer",
          "type": "address"
        },
        {
          "internalType": "uint256",
          "name": "timestamp",
          "type": "uint256"
        },
        {
          "internalType": "uint256",
          "name": "until",
          "type": "uint256"
        }
      ],
      "stateMutability": "view",
      "type": "function"
    },
    {
      "inputs": [
        {
          "internalType": "uint256",
          "name": "",
          "type": "uint256"
        }
      ],
      "name": "adverts",
      "outputs": [
        {
          "internalType": "uint256",
          "name": "",
          "type": "uint256"
        }
      ],
      "stateMutability": "view",
      "type": "function"
    },
    {
      "inputs": [],
      "name": "marketingAddress",
      "outputs": [
        {
          "internalType": "address",
          "name": "",
          "type": "address"
        }
      ],
      "stateMutability": "view",
      "type": "function"
    },
    {
      "inputs": [
        {
          "internalType": "uint256",
          "name": "",
          "type": "uint256"
        }
      ],
      "name": "nftAds",
      "outputs": [
        {
          "internalType": "uint256",
          "name": "adId",
          "type": "uint256"
        },
        {
          "internalType": "uint256",
          "name": "nftId",
          "type": "uint256"
        },
        {
          "internalType": "address",
          "name": "buyer",
          "type": "address"
        },
        {
          "internalType": "uint256",
          "name": "timestamp",
          "type": "uint256"
        },
        {
          "internalType": "uint256",
          "name": "until",
          "type": "uint256"
        }
      ],
      "stateMutability": "view",
      "type": "function"
    },
    {
      "inputs": [],
      "name": "owner",
      "outputs": [
        {
          "internalType": "address",
          "name": "",
          "type": "address"
        }
      ],
      "stateMutability": "view",
      "type": "function"
    },
    {
      "inputs": [],
      "name": "syfinNFT",
      "outputs": [
        {
          "internalType": "contract SyfinNFT",
          "name": "",
          "type": "address"
        }
      ],
      "stateMutability": "view",
      "type": "function"
    },
    {
      "inputs": [
        {
          "internalType": "uint256",
          "name": "_tokenId",
          "type": "uint256"
        }
      ],
      "name": "BuyAd90",
      "outputs": [],
      "stateMutability": "payable",
      "type": "function"
    },
    {
      "inputs": [
        {
          "internalType": "uint256",
          "name": "_tokenId",
          "type": "uint256"
        }
      ],
      "name": "BuyAd60",
      "outputs": [],
      "stateMutability": "payable",
      "type": "function"
    },
    {
      "inputs": [
        {
          "internalType": "uint256",
          "name": "_tokenId",
          "type": "uint256"
        }
      ],
      "name": "BuyAd30",
      "outputs": [],
      "stateMutability": "payable",
      "type": "function"
    },
    {
      "inputs": [
        {
          "internalType": "uint256",
          "name": "_tokenId",
          "type": "uint256"
        }
      ],
      "name": "AdminBuyAd",
      "outputs": [],
      "stateMutability": "payable",
      "type": "function"
    },
    {
      "inputs": [
        {
          "internalType": "uint256",
          "name": "_adId",
          "type": "uint256"
        }
      ],
      "name": "checkAdExpiry",
      "outputs": [
        {
          "internalType": "bool",
          "name": "success",
          "type": "bool"
        }
      ],
      "stateMutability": "view",
      "type": "function"
    },
    {
      "inputs": [
        {
          "internalType": "uint256",
          "name": "_nftId",
          "type": "uint256"
        }
      ],
      "name": "checkNFTAdExpiry",
      "outputs": [
        {
          "internalType": "bool",
          "name": "success",
          "type": "bool"
        }
      ],
      "stateMutability": "view",
      "type": "function"
    },
    {
      "inputs": [],
      "name": "TotalAds",
      "outputs": [
        {
          "internalType": "uint256",
          "name": "",
          "type": "uint256"
        }
      ],
      "stateMutability": "view",
      "type": "function"
    },
    {
      "inputs": [
        {
          "internalType": "uint256",
          "name": "_adprice90",
          "type": "uint256"
        }
      ],
      "name": "setAdPrice90",
      "outputs": [],
      "stateMutability": "nonpayable",
      "type": "function"
    },
    {
      "inputs": [],
      "name": "getAdPrice90",
      "outputs": [
        {
          "internalType": "uint256",
          "name": "",
          "type": "uint256"
        }
      ],
      "stateMutability": "view",
      "type": "function"
    },
    {
      "inputs": [
        {
          "internalType": "uint256",
          "name": "_adprice60",
          "type": "uint256"
        }
      ],
      "name": "setAdPrice60",
      "outputs": [],
      "stateMutability": "nonpayable",
      "type": "function"
    },
    {
      "inputs": [],
      "name": "getAdPrice60",
      "outputs": [
        {
          "internalType": "uint256",
          "name": "",
          "type": "uint256"
        }
      ],
      "stateMutability": "view",
      "type": "function"
    },
    {
      "inputs": [
        {
          "internalType": "uint256",
          "name": "_adprice30",
          "type": "uint256"
        }
      ],
      "name": "setAdPrice30",
      "outputs": [],
      "stateMutability": "nonpayable",
      "type": "function"
    },
    {
      "inputs": [],
      "name": "getAdPrice30",
      "outputs": [
        {
          "internalType": "uint256",
          "name": "",
          "type": "uint256"
        }
      ],
      "stateMutability": "view",
      "type": "function"
    }
  ],
  "bytecode": "0x60a0604052731bcf4dc879979c68fa255f731fe8dcf71970c9bc73ffffffffffffffffffffffffffffffffffffffff1660809073ffffffffffffffffffffffffffffffffffffffff1660601b815250739ce822f0201553b100cbe3ff06dc2c3c7722e059600260006101000a81548173ffffffffffffffffffffffffffffffffffffffff021916908373ffffffffffffffffffffffffffffffffffffffff1602179055506307270e0060045563055d4a806005556302faf080600655348015620000c857600080fd5b50604051620024a2380380620024a28339818101604052810190620000ee9190620001ce565b306000806101000a81548173ffffffffffffffffffffffffffffffffffffffff021916908373ffffffffffffffffffffffffffffffffffffffff16021790555033600360006101000a81548173ffffffffffffffffffffffffffffffffffffffff021916908373ffffffffffffffffffffffffffffffffffffffff16021790555080600160006101000a81548173ffffffffffffffffffffffffffffffffffffffff021916908373ffffffffffffffffffffffffffffffffffffffff1602179055505062000267565b600081519050620001c8816200024d565b92915050565b600060208284031215620001e757620001e662000248565b5b6000620001f784828501620001b7565b91505092915050565b60006200020d8262000228565b9050919050565b6000620002218262000200565b9050919050565b600073ffffffffffffffffffffffffffffffffffffffff82169050919050565b600080fd5b620002588162000214565b81146200026457600080fd5b50565b60805160601c6122076200029b60003960008181610b5601528181610d3a01528181611210015261175301526122076000f3fe6080604052600436106101355760003560e01c80638efacc1e116100ab578063b4fcfa0d1161006f578063b4fcfa0d146103e9578063be7e6c2d14610426578063c229926014610463578063d6a3cc1d1461048c578063e91eb974146104b7578063e98ee24b146104f857610135565b80638efacc1e14610321578063a3f889831461034c578063a42ec6fb14610377578063a5ece941146103a2578063af128685146103cd57610135565b806349ead583116100fd57806349ead583146102295780634a700728146102545780636c4829c41461027d578063870741d5146102be57806387ca2ee4146102da5780638da5cb5b146102f657610135565b806311a7a4c01461013a57806313763b4f1461017c578063174cce80146101a75780631be3d836146101c3578063327b945a14610200575b600080fd5b34801561014657600080fd5b50610161600480360381019061015c9190611e09565b610539565b60405161017396959493929190611f95565b60405180910390f35b34801561018857600080fd5b50610191610595565b60405161019e9190611f0c565b60405180910390f35b6101c160048036038101906101bc9190611e09565b6105bb565b005b3480156101cf57600080fd5b506101ea60048036038101906101e59190611e09565b610a5e565b6040516101f79190611ef1565b60405180910390f35b34801561020c57600080fd5b5061022760048036038101906102229190611e09565b610a96565b005b34801561023557600080fd5b5061023e610b54565b60405161024b9190611e9f565b60405180910390f35b34801561026057600080fd5b5061027b60048036038101906102769190611e09565b610b78565b005b34801561028957600080fd5b506102a4600480360381019061029f9190611daf565b610c36565b6040516102b5959493929190611f42565b60405180910390f35b6102d860048036038101906102d39190611e09565b610c8c565b005b6102f460048036038101906102ef9190611e09565b611162565b005b34801561030257600080fd5b5061030b611638565b6040516103189190611e9f565b60405180910390f35b34801561032d57600080fd5b5061033661165e565b6040516103439190611f27565b60405180910390f35b34801561035857600080fd5b5061036161166b565b60405161036e9190611f27565b60405180910390f35b34801561038357600080fd5b5061038c611675565b6040516103999190611f27565b60405180910390f35b3480156103ae57600080fd5b506103b761167f565b6040516103c49190611e9f565b60405180910390f35b6103e760048036038101906103e29190611e09565b6116a5565b005b3480156103f557600080fd5b50610410600480360381019061040b9190611e09565b611b7b565b60405161041d9190611ef1565b60405180910390f35b34801561043257600080fd5b5061044d60048036038101906104489190611e09565b611bb3565b60405161045a9190611f27565b60405180910390f35b34801561046f57600080fd5b5061048a60048036038101906104859190611e09565b611bd7565b005b34801561049857600080fd5b506104a1611c95565b6040516104ae9190611f27565b60405180910390f35b3480156104c357600080fd5b506104de60048036038101906104d99190611e09565b611c9f565b6040516104ef959493929190611f42565b60405180910390f35b34801561050457600080fd5b5061051f600480360381019061051a9190611e09565b611d05565b604051610530959493929190611f42565b60405180910390f35b60086020528060005260406000206000915090508060000154908060010154908060020154908060030160009054906101000a900473ffffffffffffffffffffffffffffffffffffffff16908060040154908060050154905086565b600160009054906101000a900473ffffffffffffffffffffffffffffffffffffffff1681565b600360009054906101000a900473ffffffffffffffffffffffffffffffffffffffff1673ffffffffffffffffffffffffffffffffffffffff163373ffffffffffffffffffffffffffffffffffffffff161461061557600080fd5b600360009054906101000a900473ffffffffffffffffffffffffffffffffffffffff1673ffffffffffffffffffffffffffffffffffffffff163373ffffffffffffffffffffffffffffffffffffffff161461066f57600080fd5b600160009054906101000a900473ffffffffffffffffffffffffffffffffffffffff1673ffffffffffffffffffffffffffffffffffffffff166318160ddd6040518163ffffffff1660e01b815260040160206040518083038186803b1580156106d757600080fd5b505afa1580156106eb573d6000803e3d6000fd5b505050506040513d601f19601f8201168201806040525081019061070f9190611e36565b81111561071b57600080fd5b600b81908060018154018082558091505060019003906000526020600020016000909190919091505560006001600b8054905061075891906120a6565b90504260086000838152602001908152602001600020600401819055506276a700426107849190611ff6565b6008600083815260200190815260200160002060050181905550806008600083815260200190815260200160002060000181905550336008600083815260200190815260200160002060030160006101000a81548173ffffffffffffffffffffffffffffffffffffffff021916908373ffffffffffffffffffffffffffffffffffffffff160217905550605a6008600083815260200190815260200160002060010160008282546108359190611ff6565b92505081905550816008600083815260200190815260200160002060020181905550816007600084815260200190815260200160002060010181905550806007600084815260200190815260200160002060000181905550336007600084815260200190815260200160002060020160006101000a81548173ffffffffffffffffffffffffffffffffffffffff021916908373ffffffffffffffffffffffffffffffffffffffff1602179055504260076000848152602001908152602001600020600301819055506276a7004261090c9190611ff6565b6007600084815260200190815260200160002060040181905550600a6040518060a001604052808381526020018481526020013373ffffffffffffffffffffffffffffffffffffffff1681526020014281526020016276a700426109709190611ff6565b8152509080600181540180825580915050600190039060005260206000209060050201600090919091909150600082015181600001556020820151816001015560408201518160020160006101000a81548173ffffffffffffffffffffffffffffffffffffffff021916908373ffffffffffffffffffffffffffffffffffffffff160217905550606082015181600301556080820151816004015550507fddeab5c56d188bd0da31b2a14b4f44e9a17231f51464a2a8ee58c327c52df831828233426276a70042610a419190611ff6565b604051610a52959493929190611f42565b60405180910390a15050565b60008060076000848152602001908152602001600020600401549050428111610a8b576001915050610a91565b60009150505b919050565b600360009054906101000a900473ffffffffffffffffffffffffffffffffffffffff1673ffffffffffffffffffffffffffffffffffffffff163373ffffffffffffffffffffffffffffffffffffffff1614610af057600080fd5b600360009054906101000a900473ffffffffffffffffffffffffffffffffffffffff1673ffffffffffffffffffffffffffffffffffffffff163373ffffffffffffffffffffffffffffffffffffffff1614610b4a57600080fd5b8060058190555050565b7f000000000000000000000000000000000000000000000000000000000000000081565b600360009054906101000a900473ffffffffffffffffffffffffffffffffffffffff1673ffffffffffffffffffffffffffffffffffffffff163373ffffffffffffffffffffffffffffffffffffffff1614610bd257600080fd5b600360009054906101000a900473ffffffffffffffffffffffffffffffffffffffff1673ffffffffffffffffffffffffffffffffffffffff163373ffffffffffffffffffffffffffffffffffffffff1614610c2c57600080fd5b8060068190555050565b60096020528060005260406000206000915090508060000154908060010154908060020160009054906101000a900473ffffffffffffffffffffffffffffffffffffffff16908060030154908060040154905085565b600160009054906101000a900473ffffffffffffffffffffffffffffffffffffffff1673ffffffffffffffffffffffffffffffffffffffff166318160ddd6040518163ffffffff1660e01b815260040160206040518083038186803b158015610cf457600080fd5b505afa158015610d08573d6000803e3d6000fd5b505050506040513d601f19601f82011682018060405250810190610d2c9190611e36565b811115610d3857600080fd5b7f000000000000000000000000000000000000000000000000000000000000000073ffffffffffffffffffffffffffffffffffffffff166323b872dd33600260009054906101000a900473ffffffffffffffffffffffffffffffffffffffff16670de0b6b3a7640000600454610dae919061204c565b6040518463ffffffff1660e01b8152600401610dcc93929190611eba565b602060405180830381600087803b158015610de657600080fd5b505af1158015610dfa573d6000803e3d6000fd5b505050506040513d601f19601f82011682018060405250810190610e1e9190611ddc565b50600b81908060018154018082558091505060019003906000526020600020016000909190919091505560006001600b80549050610e5c91906120a6565b90504260086000838152602001908152602001600020600401819055506276a70042610e889190611ff6565b6008600083815260200190815260200160002060050181905550806008600083815260200190815260200160002060000181905550336008600083815260200190815260200160002060030160006101000a81548173ffffffffffffffffffffffffffffffffffffffff021916908373ffffffffffffffffffffffffffffffffffffffff160217905550605a600860008381526020019081526020016000206001016000828254610f399190611ff6565b92505081905550816008600083815260200190815260200160002060020181905550816007600084815260200190815260200160002060010181905550806007600084815260200190815260200160002060000181905550336007600084815260200190815260200160002060020160006101000a81548173ffffffffffffffffffffffffffffffffffffffff021916908373ffffffffffffffffffffffffffffffffffffffff1602179055504260076000848152602001908152602001600020600301819055506276a700426110109190611ff6565b6007600084815260200190815260200160002060040181905550600a6040518060a001604052808381526020018481526020013373ffffffffffffffffffffffffffffffffffffffff1681526020014281526020016276a700426110749190611ff6565b8152509080600181540180825580915050600190039060005260206000209060050201600090919091909150600082015181600001556020820151816001015560408201518160020160006101000a81548173ffffffffffffffffffffffffffffffffffffffff021916908373ffffffffffffffffffffffffffffffffffffffff160217905550606082015181600301556080820151816004015550507fddeab5c56d188bd0da31b2a14b4f44e9a17231f51464a2a8ee58c327c52df831828233426276a700426111459190611ff6565b604051611156959493929190611f42565b60405180910390a15050565b600160009054906101000a900473ffffffffffffffffffffffffffffffffffffffff1673ffffffffffffffffffffffffffffffffffffffff166318160ddd6040518163ffffffff1660e01b815260040160206040518083038186803b1580156111ca57600080fd5b505afa1580156111de573d6000803e3d6000fd5b505050506040513d601f19601f820116820180604052508101906112029190611e36565b81111561120e57600080fd5b7f000000000000000000000000000000000000000000000000000000000000000073ffffffffffffffffffffffffffffffffffffffff166323b872dd33600260009054906101000a900473ffffffffffffffffffffffffffffffffffffffff16670de0b6b3a7640000600554611284919061204c565b6040518463ffffffff1660e01b81526004016112a293929190611eba565b602060405180830381600087803b1580156112bc57600080fd5b505af11580156112d0573d6000803e3d6000fd5b505050506040513d601f19601f820116820180604052508101906112f49190611ddc565b50600b81908060018154018082558091505060019003906000526020600020016000909190919091505560006001600b8054905061133291906120a6565b9050426008600083815260200190815260200160002060040181905550624f1a004261135e9190611ff6565b6008600083815260200190815260200160002060050181905550806008600083815260200190815260200160002060000181905550336008600083815260200190815260200160002060030160006101000a81548173ffffffffffffffffffffffffffffffffffffffff021916908373ffffffffffffffffffffffffffffffffffffffff160217905550603c60086000838152602001908152602001600020600101600082825461140f9190611ff6565b92505081905550816008600083815260200190815260200160002060020181905550816007600084815260200190815260200160002060010181905550806007600084815260200190815260200160002060000181905550336007600084815260200190815260200160002060020160006101000a81548173ffffffffffffffffffffffffffffffffffffffff021916908373ffffffffffffffffffffffffffffffffffffffff160217905550426007600084815260200190815260200160002060030181905550624f1a00426114e69190611ff6565b6007600084815260200190815260200160002060040181905550600a6040518060a001604052808381526020018481526020013373ffffffffffffffffffffffffffffffffffffffff168152602001428152602001624f1a004261154a9190611ff6565b8152509080600181540180825580915050600190039060005260206000209060050201600090919091909150600082015181600001556020820151816001015560408201518160020160006101000a81548173ffffffffffffffffffffffffffffffffffffffff021916908373ffffffffffffffffffffffffffffffffffffffff160217905550606082015181600301556080820151816004015550507fddeab5c56d188bd0da31b2a14b4f44e9a17231f51464a2a8ee58c327c52df83182823342624f1a004261161b9190611ff6565b60405161162c959493929190611f42565b60405180910390a15050565b600360009054906101000a900473ffffffffffffffffffffffffffffffffffffffff1681565b6000600b80549050905090565b6000600454905090565b6000600554905090565b600260009054906101000a900473ffffffffffffffffffffffffffffffffffffffff1681565b600160009054906101000a900473ffffffffffffffffffffffffffffffffffffffff1673ffffffffffffffffffffffffffffffffffffffff166318160ddd6040518163ffffffff1660e01b815260040160206040518083038186803b15801561170d57600080fd5b505afa158015611721573d6000803e3d6000fd5b505050506040513d601f19601f820116820180604052508101906117459190611e36565b81111561175157600080fd5b7f000000000000000000000000000000000000000000000000000000000000000073ffffffffffffffffffffffffffffffffffffffff166323b872dd33600260009054906101000a900473ffffffffffffffffffffffffffffffffffffffff16670de0b6b3a76400006006546117c7919061204c565b6040518463ffffffff1660e01b81526004016117e593929190611eba565b602060405180830381600087803b1580156117ff57600080fd5b505af1158015611813573d6000803e3d6000fd5b505050506040513d601f19601f820116820180604052508101906118379190611ddc565b50600b81908060018154018082558091505060019003906000526020600020016000909190919091505560006001600b8054905061187591906120a6565b905042600860008381526020019081526020016000206004018190555062278d00426118a19190611ff6565b6008600083815260200190815260200160002060050181905550806008600083815260200190815260200160002060000181905550336008600083815260200190815260200160002060030160006101000a81548173ffffffffffffffffffffffffffffffffffffffff021916908373ffffffffffffffffffffffffffffffffffffffff160217905550601e6008600083815260200190815260200160002060010160008282546119529190611ff6565b92505081905550816008600083815260200190815260200160002060020181905550816007600084815260200190815260200160002060010181905550806007600084815260200190815260200160002060000181905550336007600084815260200190815260200160002060020160006101000a81548173ffffffffffffffffffffffffffffffffffffffff021916908373ffffffffffffffffffffffffffffffffffffffff16021790555042600760008481526020019081526020016000206003018190555062278d0042611a299190611ff6565b6007600084815260200190815260200160002060040181905550600a6040518060a001604052808381526020018481526020013373ffffffffffffffffffffffffffffffffffffffff16815260200142815260200162278d0042611a8d9190611ff6565b8152509080600181540180825580915050600190039060005260206000209060050201600090919091909150600082015181600001556020820151816001015560408201518160020160006101000a81548173ffffffffffffffffffffffffffffffffffffffff021916908373ffffffffffffffffffffffffffffffffffffffff160217905550606082015181600301556080820151816004015550507fddeab5c56d188bd0da31b2a14b4f44e9a17231f51464a2a8ee58c327c52df8318282334262278d0042611b5e9190611ff6565b604051611b6f959493929190611f42565b60405180910390a15050565b60008060086000848152602001908152602001600020600501549050428111611ba8576001915050611bae565b60009150505b919050565b600b8181548110611bc357600080fd5b906000526020600020016000915090505481565b600360009054906101000a900473ffffffffffffffffffffffffffffffffffffffff1673ffffffffffffffffffffffffffffffffffffffff163373ffffffffffffffffffffffffffffffffffffffff1614611c3157600080fd5b600360009054906101000a900473ffffffffffffffffffffffffffffffffffffffff1673ffffffffffffffffffffffffffffffffffffffff163373ffffffffffffffffffffffffffffffffffffffff1614611c8b57600080fd5b8060048190555050565b6000600654905090565b600a8181548110611caf57600080fd5b90600052602060002090600502016000915090508060000154908060010154908060020160009054906101000a900473ffffffffffffffffffffffffffffffffffffffff16908060030154908060040154905085565b60076020528060005260406000206000915090508060000154908060010154908060020160009054906101000a900473ffffffffffffffffffffffffffffffffffffffff16908060030154908060040154905085565b600081359050611d6a8161218c565b92915050565b600081519050611d7f816121a3565b92915050565b600081359050611d94816121ba565b92915050565b600081519050611da9816121ba565b92915050565b600060208284031215611dc557611dc4612187565b5b6000611dd384828501611d5b565b91505092915050565b600060208284031215611df257611df1612187565b5b6000611e0084828501611d70565b91505092915050565b600060208284031215611e1f57611e1e612187565b5b6000611e2d84828501611d85565b91505092915050565b600060208284031215611e4c57611e4b612187565b5b6000611e5a84828501611d9a565b91505092915050565b611e6c816120da565b82525050565b611e7b816120ec565b82525050565b611e8a81612122565b82525050565b611e9981612118565b82525050565b6000602082019050611eb46000830184611e63565b92915050565b6000606082019050611ecf6000830186611e63565b611edc6020830185611e63565b611ee96040830184611e90565b949350505050565b6000602082019050611f066000830184611e72565b92915050565b6000602082019050611f216000830184611e81565b92915050565b6000602082019050611f3c6000830184611e90565b92915050565b600060a082019050611f576000830188611e90565b611f646020830187611e90565b611f716040830186611e63565b611f7e6060830185611e90565b611f8b6080830184611e90565b9695505050505050565b600060c082019050611faa6000830189611e90565b611fb76020830188611e90565b611fc46040830187611e90565b611fd16060830186611e63565b611fde6080830185611e90565b611feb60a0830184611e90565b979650505050505050565b600061200182612118565b915061200c83612118565b9250827fffffffffffffffffffffffffffffffffffffffffffffffffffffffffffffffff0382111561204157612040612158565b5b828201905092915050565b600061205782612118565b915061206283612118565b9250817fffffffffffffffffffffffffffffffffffffffffffffffffffffffffffffffff048311821515161561209b5761209a612158565b5b828202905092915050565b60006120b182612118565b91506120bc83612118565b9250828210156120cf576120ce612158565b5b828203905092915050565b60006120e5826120f8565b9050919050565b60008115159050919050565b600073ffffffffffffffffffffffffffffffffffffffff82169050919050565b6000819050919050565b600061212d82612134565b9050919050565b600061213f82612146565b9050919050565b6000612151826120f8565b9050919050565b7f4e487b7100000000000000000000000000000000000000000000000000000000600052601160045260246000fd5b600080fd5b612195816120da565b81146121a057600080fd5b50565b6121ac816120ec565b81146121b757600080fd5b50565b6121c381612118565b81146121ce57600080fd5b5056fea2646970667358221220eb01415cc91863fbf64ae8ec2d20eea9c69c774f74ab986bb8cea20a666c7aa264736f6c63430008070033",
  "immutableReferences": {
    "5146": [
      {
        "length": 32,
        "start": 2902
      },
      {
        "length": 32,
        "start": 3386
      },
      {
        "length": 32,
        "start": 4624
      },
      {
        "length": 32,
        "start": 5971
      }
    ]
  },
  "source": "pragma solidity >0.6.2;\r\n\r\nimport \"./SyfinNFT.sol\";\r\n\r\n//  __.   .___                \r\n// (__   .[__ *._  _.._  _. _ \r\n// .__)\\_||   |[ )(_][ )(_.(/,\r\n//     ._|                    \r\n// https://syfin.art SYF NFT Advertising\r\n\r\n/**\r\n * @dev Interface of the ERC20 standard as defined in the EIP.\r\n */\r\ninterface IERC20 {\r\n    /**\r\n     * @dev Returns the amount of tokens in existence.\r\n     */\r\n    function totalSupply() external view returns (uint256);\r\n\r\n    /**\r\n     * @dev Returns the amount of tokens owned by `account`.\r\n     */\r\n    function balanceOf(address account) external view returns (uint256);\r\n\r\n    /**\r\n     * @dev Moves `amount` tokens from the caller's account to `recipient`.\r\n     *\r\n     * Returns a boolean value indicating whether the operation succeeded.\r\n     *\r\n     * Emits a {Transfer} event.\r\n     */\r\n    function transfer(address recipient, uint256 amount) external returns (bool);\r\n\r\n    /**\r\n     * @dev Returns the remaining number of tokens that `spender` will be\r\n     * allowed to spend on behalf of `owner` through {transferFrom}. This is\r\n     * zero by default.\r\n     *\r\n     * This value changes when {approve} or {transferFrom} are called.\r\n     */\r\n    function allowance(address owner, address spender) external view returns (uint256);\r\n\r\n    /**\r\n     * @dev Sets `amount` as the allowance of `spender` over the caller's tokens.\r\n     *\r\n     * Returns a boolean value indicating whether the operation succeeded.\r\n     *\r\n     * IMPORTANT: Beware that changing an allowance with this method brings the risk\r\n     * that someone may use both the old and the new allowance by unfortunate\r\n     * transaction ordering. One possible solution to mitigate this race\r\n     * condition is to first reduce the spender's allowance to 0 and set the\r\n     * desired value afterwards:\r\n     * https://github.com/ethereum/EIPs/issues/20#issuecomment-263524729\r\n     *\r\n     * Emits an {Approval} event.\r\n     */\r\n    function approve(address spender, uint256 amount) external returns (bool);\r\n\r\n    /**\r\n     * @dev Moves `amount` tokens from `sender` to `recipient` using the\r\n     * allowance mechanism. `amount` is then deducted from the caller's\r\n     * allowance.\r\n     *\r\n     * Returns a boolean value indicating whether the operation succeeded.\r\n     *\r\n     * Emits a {Transfer} event.\r\n     */\r\n    function transferFrom(\r\n        address sender,\r\n        address recipient,\r\n        uint256 amount\r\n    ) external returns (bool);\r\n\r\n    /**\r\n     * @dev Emitted when `value` tokens are moved from one account (`from`) to\r\n     * another (`to`).\r\n     *\r\n     * Note that `value` may be zero.\r\n     */\r\n    event Transfer(address indexed from, address indexed to, uint256 value);\r\n\r\n    /**\r\n     * @dev Emitted when the allowance of a `spender` for an `owner` is set by\r\n     * a call to {approve}. `value` is the new allowance.\r\n     */\r\n    event Approval(address indexed owner, address indexed spender, uint256 value);\r\n}\r\n\r\npragma solidity >0.6.2;\r\n\r\n/**\r\n * @dev Interface for the optional metadata functions from the ERC20 standard.\r\n *\r\n * _Available since v4.1._\r\n */\r\ninterface IERC20Metadata is IERC20 {\r\n    /**\r\n     * @dev Returns the name of the token.\r\n     */\r\n    function name() external view returns (string memory);\r\n\r\n    /**\r\n     * @dev Returns the symbol of the token.\r\n     */\r\n    function symbol() external view returns (string memory);\r\n\r\n    /**\r\n     * @dev Returns the decimals places of the token.\r\n     */\r\n    function decimals() external view returns (uint8);\r\n}\r\n\r\n// Ownable\r\n\r\npragma solidity >0.6.2;\r\n\r\ncontract Ownable is Context {\r\n    address private _owner;\r\n\r\n    event OwnershipTransferred(address indexed previousOwner, address indexed newOwner);\r\n\r\n    /**\r\n     * @dev Initializes the contract setting the deployer as the initial owner.\r\n     */\r\n    constructor () public {\r\n        address msgSender = _msgSender();\r\n        _owner = msgSender;\r\n        emit OwnershipTransferred(address(0), msgSender);\r\n    }\r\n\r\n    /**\r\n     * @dev Returns the address of the current owner.\r\n     */\r\n    function owner() public view returns (address) {\r\n        return _owner;\r\n    }\r\n\r\n    /**\r\n     * @dev Throws if called by any account other than the owner.\r\n     */\r\n    modifier onlyOwner() {\r\n        require(_owner == _msgSender(), \"Ownable: caller is not the owner\");\r\n        _;\r\n    }\r\n\r\n    /**\r\n     * @dev Leaves the contract without owner. It will not be possible to call\r\n     * `onlyOwner` functions anymore. Can only be called by the current owner.\r\n     *\r\n     * NOTE: Renouncing ownership will leave the contract without an owner,\r\n     * thereby removing any functionality that is only available to the owner.\r\n     */\r\n    function renounceOwnership() public virtual onlyOwner {\r\n        emit OwnershipTransferred(_owner, address(0));\r\n        _owner = address(0);\r\n    }\r\n\r\n    /**\r\n     * @dev Transfers ownership of the contract to a new account (`newOwner`).\r\n     * Can only be called by the current owner.\r\n     */\r\n    function transferOwnership(address newOwner) public virtual onlyOwner {\r\n        require(newOwner != address(0), \"Ownable: new owner is the zero address\");\r\n        emit OwnershipTransferred(_owner, newOwner);\r\n        _owner = newOwner;\r\n    }\r\n}\r\n\r\n// SafeMath\r\n\r\npragma solidity >0.6.2;\r\n\r\nlibrary SafeMath {\r\n    /**\r\n     * @dev Returns the addition of two unsigned integers, reverting on\r\n     * overflow.\r\n     *\r\n     * Counterpart to Solidity's `+` operator.\r\n     *\r\n     * Requirements:\r\n     *\r\n     * - Addition cannot overflow.\r\n     */\r\n    function add(uint256 a, uint256 b) internal pure returns (uint256) {\r\n        uint256 c = a + b;\r\n        require(c >= a, \"SafeMath: addition overflow\");\r\n\r\n        return c;\r\n    }\r\n\r\n    /**\r\n     * @dev Returns the subtraction of two unsigned integers, reverting on\r\n     * overflow (when the result is negative).\r\n     *\r\n     * Counterpart to Solidity's `-` operator.\r\n     *\r\n     * Requirements:\r\n     *\r\n     * - Subtraction cannot overflow.\r\n     */\r\n    function sub(uint256 a, uint256 b) internal pure returns (uint256) {\r\n        return sub(a, b, \"SafeMath: subtraction overflow\");\r\n    }\r\n\r\n    /**\r\n     * @dev Returns the subtraction of two unsigned integers, reverting with custom message on\r\n     * overflow (when the result is negative).\r\n     *\r\n     * Counterpart to Solidity's `-` operator.\r\n     *\r\n     * Requirements:\r\n     *\r\n     * - Subtraction cannot overflow.\r\n     */\r\n    function sub(uint256 a, uint256 b, string memory errorMessage) internal pure returns (uint256) {\r\n        require(b <= a, errorMessage);\r\n        uint256 c = a - b;\r\n\r\n        return c;\r\n    }\r\n\r\n    /**\r\n     * @dev Returns the multiplication of two unsigned integers, reverting on\r\n     * overflow.\r\n     *\r\n     * Counterpart to Solidity's `*` operator.\r\n     *\r\n     * Requirements:\r\n     *\r\n     * - Multiplication cannot overflow.\r\n     */\r\n    function mul(uint256 a, uint256 b) internal pure returns (uint256) {\r\n        // Gas optimization: this is cheaper than requiring 'a' not being zero, but the\r\n        // benefit is lost if 'b' is also tested.\r\n        // See: https://github.com/OpenZeppelin/openzeppelin-contracts/pull/522\r\n        if (a == 0) {\r\n            return 0;\r\n        }\r\n\r\n        uint256 c = a * b;\r\n        require(c / a == b, \"SafeMath: multiplication overflow\");\r\n\r\n        return c;\r\n    }\r\n\r\n    /**\r\n     * @dev Returns the integer division of two unsigned integers. Reverts on\r\n     * division by zero. The result is rounded towards zero.\r\n     *\r\n     * Counterpart to Solidity's `/` operator. Note: this function uses a\r\n     * `revert` opcode (which leaves remaining gas untouched) while Solidity\r\n     * uses an invalid opcode to revert (consuming all remaining gas).\r\n     *\r\n     * Requirements:\r\n     *\r\n     * - The divisor cannot be zero.\r\n     */\r\n    function div(uint256 a, uint256 b) internal pure returns (uint256) {\r\n        return div(a, b, \"SafeMath: division by zero\");\r\n    }\r\n\r\n    /**\r\n     * @dev Returns the integer division of two unsigned integers. Reverts with custom message on\r\n     * division by zero. The result is rounded towards zero.\r\n     *\r\n     * Counterpart to Solidity's `/` operator. Note: this function uses a\r\n     * `revert` opcode (which leaves remaining gas untouched) while Solidity\r\n     * uses an invalid opcode to revert (consuming all remaining gas).\r\n     *\r\n     * Requirements:\r\n     *\r\n     * - The divisor cannot be zero.\r\n     */\r\n    function div(uint256 a, uint256 b, string memory errorMessage) internal pure returns (uint256) {\r\n        require(b > 0, errorMessage);\r\n        uint256 c = a / b;\r\n        // assert(a == b * c + a % b); // There is no case in which this doesn't hold\r\n\r\n        return c;\r\n    }\r\n\r\n    /**\r\n     * @dev Returns the remainder of dividing two unsigned integers. (unsigned integer modulo),\r\n     * Reverts when dividing by zero.\r\n     *\r\n     * Counterpart to Solidity's `%` operator. This function uses a `revert`\r\n     * opcode (which leaves remaining gas untouched) while Solidity uses an\r\n     * invalid opcode to revert (consuming all remaining gas).\r\n     *\r\n     * Requirements:\r\n     *\r\n     * - The divisor cannot be zero.\r\n     */\r\n    function mod(uint256 a, uint256 b) internal pure returns (uint256) {\r\n        return mod(a, b, \"SafeMath: modulo by zero\");\r\n    }\r\n\r\n    /**\r\n     * @dev Returns the remainder of dividing two unsigned integers. (unsigned integer modulo),\r\n     * Reverts with custom message when dividing by zero.\r\n     *\r\n     * Counterpart to Solidity's `%` operator. This function uses a `revert`\r\n     * opcode (which leaves remaining gas untouched) while Solidity uses an\r\n     * invalid opcode to revert (consuming all remaining gas).\r\n     *\r\n     * Requirements:\r\n     *\r\n     * - The divisor cannot be zero.\r\n     */\r\n    function mod(uint256 a, uint256 b, string memory errorMessage) internal pure returns (uint256) {\r\n        require(b != 0, errorMessage);\r\n        return a % b;\r\n    }\r\n}\r\n\r\n// SafeMathInt\r\n\r\npragma solidity >0.6.2;\r\n\r\n/**\r\n * @title SafeMathInt\r\n * @dev Math operations for int256 with overflow safety checks.\r\n */\r\nlibrary SafeMathInt {\r\n    int256 private constant MIN_INT256 = int256(1) << 255;\r\n    int256 private constant MAX_INT256 = ~(int256(1) << 255);\r\n\r\n    /**\r\n     * @dev Multiplies two int256 variables and fails on overflow.\r\n     */\r\n    function mul(int256 a, int256 b) internal pure returns (int256) {\r\n        int256 c = a * b;\r\n\r\n        // Detect overflow when multiplying MIN_INT256 with -1\r\n        require(c != MIN_INT256 || (a & MIN_INT256) != (b & MIN_INT256));\r\n        require((b == 0) || (c / b == a));\r\n        return c;\r\n    }\r\n\r\n    /**\r\n     * @dev Division of two int256 variables and fails on overflow.\r\n     */\r\n    function div(int256 a, int256 b) internal pure returns (int256) {\r\n        // Prevent overflow when dividing MIN_INT256 by -1\r\n        require(b != -1 || a != MIN_INT256);\r\n\r\n        // Solidity already throws when dividing by 0.\r\n        return a / b;\r\n    }\r\n\r\n    /**\r\n     * @dev Subtracts two int256 variables and fails on overflow.\r\n     */\r\n    function sub(int256 a, int256 b) internal pure returns (int256) {\r\n        int256 c = a - b;\r\n        require((b >= 0 && c <= a) || (b < 0 && c > a));\r\n        return c;\r\n    }\r\n\r\n    /**\r\n     * @dev Adds two int256 variables and fails on overflow.\r\n     */\r\n    function add(int256 a, int256 b) internal pure returns (int256) {\r\n        int256 c = a + b;\r\n        require((b >= 0 && c >= a) || (b < 0 && c < a));\r\n        return c;\r\n    }\r\n\r\n    /**\r\n     * @dev Converts to absolute value, and fails on overflow.\r\n     */\r\n    function abs(int256 a) internal pure returns (int256) {\r\n        require(a != MIN_INT256);\r\n        return a < 0 ? -a : a;\r\n    }\r\n\r\n\r\n    function toUint256Safe(int256 a) internal pure returns (uint256) {\r\n        require(a >= 0);\r\n        return uint256(a);\r\n    }\r\n    \r\n}\r\n\r\n// SAFEMATHUINT\r\n\r\npragma solidity >0.6.2;\r\n\r\n/**\r\n * @title SafeMathUint\r\n * @dev Math operations with safety checks that revert on error\r\n */\r\nlibrary SafeMathUint {\r\n  function toInt256Safe(uint256 a) internal pure returns (int256) {\r\n    int256 b = int256(a);\r\n    require(b >= 0);\r\n    return b;\r\n  }\r\n}\r\n\r\n\r\n// ERC20\r\n\r\npragma solidity >0.6.2;\r\n\r\n/**\r\n * @dev Implementation of the {IERC20} interface.\r\n *\r\n * This implementation is agnostic to the way tokens are created. This means\r\n * that a supply mechanism has to be added in a derived contract using {_mint}.\r\n * For a generic mechanism see {ERC20PresetMinterPauser}.\r\n *\r\n * TIP: For a detailed writeup see our guide\r\n * https://forum.zeppelin.solutions/t/how-to-implement-erc20-supply-mechanisms/226[How\r\n * to implement supply mechanisms].\r\n *\r\n * We have followed general OpenZeppelin guidelines: functions revert instead\r\n * of returning `false` on failure. This behavior is nonetheless conventional\r\n * and does not conflict with the expectations of ERC20 applications.\r\n *\r\n * Additionally, an {Approval} event is emitted on calls to {transferFrom}.\r\n * This allows applications to reconstruct the allowance for all accounts just\r\n * by listening to said events. Other implementations of the EIP may not emit\r\n * these events, as it isn't required by the specification.\r\n *\r\n * Finally, the non-standard {decreaseAllowance} and {increaseAllowance}\r\n * functions have been added to mitigate the well-known issues around setting\r\n * allowances. See {IERC20-approve}.\r\n */\r\ncontract ERC20 is Context, IERC20, IERC20Metadata {\r\n    using SafeMath for uint256;\r\n\r\n    mapping(address => uint256) private _balances;\r\n\r\n    mapping(address => mapping(address => uint256)) private _allowances;\r\n\r\n    uint256 private _totalSupply;\r\n\r\n    string private _name;\r\n    string private _symbol;\r\n\r\n    /**\r\n     * @dev Sets the values for {name} and {symbol}.\r\n     *\r\n     * The default value of {decimals} is 18. To select a different value for\r\n     * {decimals} you should overload it.\r\n     *\r\n     * All two of these values are immutable: they can only be set once during\r\n     * construction.\r\n     */\r\n    constructor(string memory name_, string memory symbol_) public {\r\n        _name = name_;\r\n        _symbol = symbol_;\r\n    }\r\n\r\n    /**\r\n     * @dev Returns the name of the token.\r\n     */\r\n    function name() public view virtual override returns (string memory) {\r\n        return _name;\r\n    }\r\n\r\n    /**\r\n     * @dev Returns the symbol of the token, usually a shorter version of the\r\n     * name.\r\n     */\r\n    function symbol() public view virtual override returns (string memory) {\r\n        return _symbol;\r\n    }\r\n\r\n    /**\r\n     * @dev Returns the number of decimals used to get its user representation.\r\n     * For example, if `decimals` equals `2`, a balance of `505` tokens should\r\n     * be displayed to a user as `5,05` (`505 / 10 ** 2`).\r\n     *\r\n     * Tokens usually opt for a value of 18, imitating the relationship between\r\n     * Ether and Wei. This is the value {ERC20} uses, unless this function is\r\n     * overridden;\r\n     *\r\n     * NOTE: This information is only used for _display_ purposes: it in\r\n     * no way affects any of the arithmetic of the contract, including\r\n     * {IERC20-balanceOf} and {IERC20-transfer}.\r\n     */\r\n    function decimals() public view virtual override returns (uint8) {\r\n        return 18;\r\n    }\r\n\r\n    /**\r\n     * @dev See {IERC20-totalSupply}.\r\n     */\r\n    function totalSupply() public view virtual override returns (uint256) {\r\n        return _totalSupply;\r\n    }\r\n\r\n    /**\r\n     * @dev See {IERC20-balanceOf}.\r\n     */\r\n    function balanceOf(address account) public view virtual override returns (uint256) {\r\n        return _balances[account];\r\n    }\r\n\r\n    /**\r\n     * @dev See {IERC20-transfer}.\r\n     *\r\n     * Requirements:\r\n     *\r\n     * - `recipient` cannot be the zero address.\r\n     * - the caller must have a balance of at least `amount`.\r\n     */\r\n    function transfer(address recipient, uint256 amount) public virtual override returns (bool) {\r\n        _transfer(_msgSender(), recipient, amount);\r\n        return true;\r\n    }\r\n\r\n    /**\r\n     * @dev See {IERC20-allowance}.\r\n     */\r\n    function allowance(address owner, address spender) public view virtual override returns (uint256) {\r\n        return _allowances[owner][spender];\r\n    }\r\n\r\n    /**\r\n     * @dev See {IERC20-approve}.\r\n     *\r\n     * Requirements:\r\n     *\r\n     * - `spender` cannot be the zero address.\r\n     */\r\n    function approve(address spender, uint256 amount) public virtual override returns (bool) {\r\n        _approve(_msgSender(), spender, amount);\r\n        return true;\r\n    }\r\n\r\n    /**\r\n     * @dev See {IERC20-transferFrom}.\r\n     *\r\n     * Emits an {Approval} event indicating the updated allowance. This is not\r\n     * required by the EIP. See the note at the beginning of {ERC20}.\r\n     *\r\n     * Requirements:\r\n     *\r\n     * - `sender` and `recipient` cannot be the zero address.\r\n     * - `sender` must have a balance of at least `amount`.\r\n     * - the caller must have allowance for ``sender``'s tokens of at least\r\n     * `amount`.\r\n     */\r\n    function transferFrom(\r\n        address sender,\r\n        address recipient,\r\n        uint256 amount\r\n    ) public virtual override returns (bool) {\r\n        _transfer(sender, recipient, amount);\r\n        _approve(sender, _msgSender(), _allowances[sender][_msgSender()].sub(amount, \"ERC20: transfer amount exceeds allowance\"));\r\n        return true;\r\n    }\r\n\r\n    /**\r\n     * @dev Atomically increases the allowance granted to `spender` by the caller.\r\n     *\r\n     * This is an alternative to {approve} that can be used as a mitigation for\r\n     * problems described in {IERC20-approve}.\r\n     *\r\n     * Emits an {Approval} event indicating the updated allowance.\r\n     *\r\n     * Requirements:\r\n     *\r\n     * - `spender` cannot be the zero address.\r\n     */\r\n    function increaseAllowance(address spender, uint256 addedValue) public virtual returns (bool) {\r\n        _approve(_msgSender(), spender, _allowances[_msgSender()][spender].add(addedValue));\r\n        return true;\r\n    }\r\n\r\n    /**\r\n     * @dev Atomically decreases the allowance granted to `spender` by the caller.\r\n     *\r\n     * This is an alternative to {approve} that can be used as a mitigation for\r\n     * problems described in {IERC20-approve}.\r\n     *\r\n     * Emits an {Approval} event indicating the updated allowance.\r\n     *\r\n     * Requirements:\r\n     *\r\n     * - `spender` cannot be the zero address.\r\n     * - `spender` must have allowance for the caller of at least\r\n     * `subtractedValue`.\r\n     */\r\n    function decreaseAllowance(address spender, uint256 subtractedValue) public virtual returns (bool) {\r\n        _approve(_msgSender(), spender, _allowances[_msgSender()][spender].sub(subtractedValue, \"ERC20: decreased allowance below zero\"));\r\n        return true;\r\n    }\r\n\r\n    /**\r\n     * @dev Moves tokens `amount` from `sender` to `recipient`.\r\n     *\r\n     * This is internal function is equivalent to {transfer}, and can be used to\r\n     * e.g. implement automatic token fees, slashing mechanisms, etc.\r\n     *\r\n     * Emits a {Transfer} event.\r\n     *\r\n     * Requirements:\r\n     *\r\n     * - `sender` cannot be the zero address.\r\n     * - `recipient` cannot be the zero address.\r\n     * - `sender` must have a balance of at least `amount`.\r\n     */\r\n    function _transfer(\r\n        address sender,\r\n        address recipient,\r\n        uint256 amount\r\n    ) internal virtual {\r\n        require(sender != address(0), \"ERC20: transfer from the zero address\");\r\n        require(recipient != address(0), \"ERC20: transfer to the zero address\");\r\n\r\n        _beforeTokenTransfer(sender, recipient, amount);\r\n\r\n        _balances[sender] = _balances[sender].sub(amount, \"ERC20: transfer amount exceeds balance\");\r\n        _balances[recipient] = _balances[recipient].add(amount);\r\n        emit Transfer(sender, recipient, amount);\r\n    }\r\n\r\n    /** @dev Creates `amount` tokens and assigns them to `account`, increasing\r\n     * the total supply.\r\n     *\r\n     * Emits a {Transfer} event with `from` set to the zero address.\r\n     *\r\n     * Requirements:\r\n     *\r\n     * - `account` cannot be the zero address.\r\n     */\r\n    function _mint(address account, uint256 amount) internal virtual {\r\n        require(account != address(0), \"ERC20: mint to the zero address\");\r\n\r\n        _beforeTokenTransfer(address(0), account, amount);\r\n\r\n        _totalSupply = _totalSupply.add(amount);\r\n        _balances[account] = _balances[account].add(amount);\r\n        emit Transfer(address(0), account, amount);\r\n    }\r\n\r\n    /**\r\n     * @dev Destroys `amount` tokens from `account`, reducing the\r\n     * total supply.\r\n     *\r\n     * Emits a {Transfer} event with `to` set to the zero address.\r\n     *\r\n     * Requirements:\r\n     *\r\n     * - `account` cannot be the zero address.\r\n     * - `account` must have at least `amount` tokens.\r\n     */\r\n    function _burn(address account, uint256 amount) internal virtual {\r\n        require(account != address(0), \"ERC20: burn from the zero address\");\r\n\r\n        _beforeTokenTransfer(account, address(0), amount);\r\n\r\n        _balances[account] = _balances[account].sub(amount, \"ERC20: burn amount exceeds balance\");\r\n        _totalSupply = _totalSupply.sub(amount);\r\n        emit Transfer(account, address(0), amount);\r\n    }\r\n\r\n    /**\r\n     * @dev Sets `amount` as the allowance of `spender` over the `owner` s tokens.\r\n     *\r\n     * This internal function is equivalent to `approve`, and can be used to\r\n     * e.g. set automatic allowances for certain subsystems, etc.\r\n     *\r\n     * Emits an {Approval} event.\r\n     *\r\n     * Requirements:\r\n     *\r\n     * - `owner` cannot be the zero address.\r\n     * - `spender` cannot be the zero address.\r\n     */\r\n    function _approve(\r\n        address owner,\r\n        address spender,\r\n        uint256 amount\r\n    ) internal virtual {\r\n        require(owner != address(0), \"ERC20: approve from the zero address\");\r\n        require(spender != address(0), \"ERC20: approve to the zero address\");\r\n\r\n        _allowances[owner][spender] = amount;\r\n        emit Approval(owner, spender, amount);\r\n    }\r\n\r\n    /**\r\n     * @dev Hook that is called before any transfer of tokens. This includes\r\n     * minting and burning.\r\n     *\r\n     * Calling conditions:\r\n     *\r\n     * - when `from` and `to` are both non-zero, `amount` of ``from``'s tokens\r\n     * will be to transferred to `to`.\r\n     * - when `from` is zero, `amount` tokens will be minted for `to`.\r\n     * - when `to` is zero, `amount` of ``from``'s tokens will be burned.\r\n     * - `from` and `to` are never both zero.\r\n     *\r\n     * To learn more about hooks, head to xref:ROOT:extending-contracts.adoc#using-hooks[Using Hooks].\r\n     */\r\n    function _beforeTokenTransfer(\r\n        address from,\r\n        address to,\r\n        uint256 amount\r\n    ) internal virtual {}\r\n}\r\n\r\n\r\ncontract SyfinNFTAds {\r\n\r\n    address admin;\r\n    SyfinNFT public syfinNFT;\r\n\r\n    address public immutable SYF = address(0x1BCF4DC879979C68fA255f731FE8Dcf71970c9bC); // SYF\r\n\r\n    address public marketingAddress = 0x9ce822F0201553B100cbE3FF06dC2c3c7722e059; // marketing\r\n\r\n    event NewAdvertisement(uint256 _tokenId, uint256 _adId, address _buyer, uint256 _timestamp, uint256 _until);\r\n\r\n    address public owner;\r\n\r\n    constructor(SyfinNFT _syfinNFT) public {\r\n        admin = address(this);\r\n        owner = msg.sender;\r\n        syfinNFT = _syfinNFT;\r\n    }\r\n\r\n    modifier onlyOwner() {\r\n        require(msg.sender == owner);\r\n        _;\r\n    }\r\n\r\n    uint256 adprice90 = 120000000; // 120M SYF default\r\n    uint256 adprice60 = 90000000; // 90M SYF default\r\n    uint256 adprice30 = 50000000; // 50M SYF default\r\n\r\n    struct NFTAds {\r\n        uint adId;\r\n        uint nftId;\r\n        address buyer;\r\n        uint timestamp;\r\n        uint until;\r\n    }\r\n\r\n    struct Ad {\r\n        uint adId;\r\n        uint upvotes;\r\n        uint nftId;\r\n        address buyer;\r\n        uint timestamp;\r\n        uint until;\r\n    }\r\n\r\n    struct AdOwner {\r\n        uint adId;\r\n        uint nftId;\r\n        address buyer;        \r\n        uint timestamp;\r\n        uint until;\r\n    }\r\n\r\n    mapping(uint => NFTAds) public nftAds;\r\n\r\n    mapping(uint => Ad) public ads;\r\n\r\n    mapping(address => AdOwner) public adOwners;\r\n\r\n    AdOwner[] public adOwnerList;\r\n\r\n    // AdOwner[] public adOwners;\r\n\r\n    uint[] public adverts;\r\n\r\n    // mapping(uint => bool) _adExists;\r\n\r\n    function BuyAd90(uint256 _tokenId) public payable {\r\n        require(_tokenId <= syfinNFT.totalSupply());\r\n        // require(!_adExists[_tokenId]);\r\n\r\n        IERC20(SYF).transferFrom(msg.sender, marketingAddress, adprice90*1e18);\r\n\r\n        adverts.push(_tokenId);\r\n\r\n        uint _id = adverts.length -1;\r\n\r\n        ads[_id].timestamp = block.timestamp;\r\n        ads[_id].until = block.timestamp + 90 days;\r\n        ads[_id].adId = _id;\r\n        ads[_id].buyer = msg.sender;\r\n        ads[_id].upvotes += 90;\r\n        ads[_id].nftId = _tokenId;\r\n\r\n        nftAds[_tokenId].nftId = _tokenId;\r\n        nftAds[_tokenId].adId = _id;\r\n        nftAds[_tokenId].buyer = msg.sender;\r\n        nftAds[_tokenId].timestamp = block.timestamp;\r\n        nftAds[_tokenId].until = block.timestamp + 90 days;\r\n\r\n        // adOwners[msg.sender].push(_id);\r\n        // adOwners[msg.sender].nftId.push(_tokenId);\r\n        // adOwners[msg.sender].buyer = msg.sender;\r\n        // adOwners[msg.sender].timestamp.push(block.timestamp);\r\n        // adOwners[msg.sender].until.push(block.timestamp + 90 days);\r\n        adOwnerList.push(AdOwner(_id, _tokenId, msg.sender, block.timestamp, block.timestamp + 90 days));\r\n        \r\n        // _adExists[_tokenId] = true;\r\n\r\n        emit NewAdvertisement(_tokenId, _id, msg.sender, block.timestamp, block.timestamp + 90 days);\r\n    }\r\n\r\n    function BuyAd60(uint256 _tokenId) public payable {\r\n        require(_tokenId <= syfinNFT.totalSupply());\r\n        // require(!_adExists[_tokenId]);\r\n\r\n        IERC20(SYF).transferFrom(msg.sender, marketingAddress, adprice60*1e18);\r\n\r\n        adverts.push(_tokenId);\r\n\r\n        uint _id = adverts.length -1;\r\n\r\n        ads[_id].timestamp = block.timestamp;\r\n        ads[_id].until = block.timestamp + 60 days;\r\n        ads[_id].adId = _id;\r\n        ads[_id].buyer = msg.sender;\r\n        ads[_id].upvotes += 60;\r\n        ads[_id].nftId = _tokenId;\r\n\r\n        nftAds[_tokenId].nftId = _tokenId;\r\n        nftAds[_tokenId].adId = _id;\r\n        nftAds[_tokenId].buyer = msg.sender;\r\n        nftAds[_tokenId].timestamp = block.timestamp;\r\n        nftAds[_tokenId].until = block.timestamp + 60 days;\r\n\r\n        adOwnerList.push(AdOwner(_id, _tokenId, msg.sender, block.timestamp, block.timestamp + 60 days));\r\n        \r\n        // _adExists[_tokenId] = true;\r\n\r\n        emit NewAdvertisement(_tokenId, _id, msg.sender, block.timestamp, block.timestamp + 60 days);\r\n    }\r\n\r\n    function BuyAd30(uint256 _tokenId) public payable {\r\n        require(_tokenId <= syfinNFT.totalSupply());\r\n        // require(!_adExists[_tokenId]);\r\n\r\n        IERC20(SYF).transferFrom(msg.sender, marketingAddress, adprice30*1e18);\r\n\r\n        adverts.push(_tokenId);\r\n\r\n        uint _id = adverts.length -1;\r\n\r\n        ads[_id].timestamp = block.timestamp;\r\n        ads[_id].until = block.timestamp + 30 days;\r\n        ads[_id].adId = _id;\r\n        ads[_id].buyer = msg.sender;\r\n        ads[_id].upvotes += 30;\r\n        ads[_id].nftId = _tokenId;\r\n\r\n        nftAds[_tokenId].nftId = _tokenId;\r\n        nftAds[_tokenId].adId = _id;\r\n        nftAds[_tokenId].buyer = msg.sender;\r\n        nftAds[_tokenId].timestamp = block.timestamp;\r\n        nftAds[_tokenId].until = block.timestamp + 30 days;\r\n\r\n        adOwnerList.push(AdOwner(_id, _tokenId, msg.sender, block.timestamp, block.timestamp + 30 days));\r\n        \r\n        // _adExists[_tokenId] = true;\r\n\r\n        emit NewAdvertisement(_tokenId, _id, msg.sender, block.timestamp, block.timestamp + 30 days);\r\n    }\r\n\r\n    function AdminBuyAd(uint256 _tokenId) public payable onlyOwner {\r\n        require(msg.sender == owner);\r\n        require(_tokenId <= syfinNFT.totalSupply());        \r\n\r\n        // IERC20(SYF).transferFrom(msg.sender, marketingAddress, adprice90*1e18);\r\n\r\n        adverts.push(_tokenId);\r\n\r\n        uint _id = adverts.length -1;\r\n\r\n        ads[_id].timestamp = block.timestamp;\r\n        ads[_id].until = block.timestamp + 90 days;\r\n        ads[_id].adId = _id;\r\n        ads[_id].buyer = msg.sender;\r\n        ads[_id].upvotes += 90;\r\n        ads[_id].nftId = _tokenId;\r\n\r\n        nftAds[_tokenId].nftId = _tokenId;\r\n        nftAds[_tokenId].adId = _id;\r\n        nftAds[_tokenId].buyer = msg.sender;\r\n        nftAds[_tokenId].timestamp = block.timestamp;\r\n        nftAds[_tokenId].until = block.timestamp + 90 days;\r\n\r\n        adOwnerList.push(AdOwner(_id, _tokenId, msg.sender, block.timestamp, block.timestamp + 90 days));\r\n        \r\n        // _adExists[_tokenId] = true;\r\n\r\n        emit NewAdvertisement(_tokenId, _id, msg.sender, block.timestamp, block.timestamp + 90 days);\r\n    }\r\n\r\n    function checkAdExpiry(uint256 _adId) public view returns (bool success) {    \r\n        uint LastTimeStamp = ads[_adId].until;\r\n\r\n        if (LastTimeStamp <= block.timestamp) {\r\n            return true; // If LastTimeStamp is less than or equal to block.timestamp, return true (ad expired)\r\n        } else {\r\n            return false;\r\n        }\r\n    }\r\n\r\n    function checkNFTAdExpiry(uint256 _nftId) public view returns (bool success) {    \r\n        uint LastTimeStamp = nftAds[_nftId].until;\r\n\r\n        if (LastTimeStamp <= block.timestamp) {\r\n            return true; // If LastTimeStamp is less than or equal to block.timestamp, return true (ad expired)\r\n        } else {\r\n            return false;\r\n        }\r\n    }\r\n\r\n    function TotalAds() public view returns (uint) {\r\n        return adverts.length;\r\n    }\r\n\r\n    function setAdPrice90(uint256 _adprice90) public onlyOwner {\r\n        require(msg.sender == owner);\r\n        adprice90 = _adprice90;\r\n    }\r\n\r\n    function getAdPrice90() public view returns (uint256) {\r\n        return adprice90;\r\n    }\r\n\r\n    function setAdPrice60(uint256 _adprice60) public onlyOwner {\r\n        require(msg.sender == owner);\r\n        adprice60 = _adprice60;\r\n    }\r\n\r\n    function getAdPrice60() public view returns (uint256) {\r\n        return adprice60;\r\n    }\r\n\r\n    function setAdPrice30(uint256 _adprice30) public onlyOwner {\r\n        require(msg.sender == owner);\r\n        adprice30 = _adprice30;\r\n    }\r\n\r\n    function getAdPrice30() public view returns (uint256) {\r\n        return adprice30;\r\n    }\r\n\r\n}",
  "sourcePath": "C:\\Users\\carse\\Dropbox\\Syfin\\nft-market-master\\src\\contracts\\SyfinNFTAds.sol",
  "compiler": {
    "name": "solc",
    "version": "0.8.7+commit.e28d00a7.Emscripten.clang"
  },
  "schemaVersion": "3.4.3",
  "updatedAt": "2021-09-13T22:46:53.550Z",
  "devdoc": {
    "kind": "dev",
    "methods": {},
    "version": 1
  },
  "userdoc": {
    "kind": "user",
    "methods": {},
    "version": 1
  }
}