{
  "contractName": "SyfinNFT",
  "abi": [
    {
      "inputs": [],
      "stateMutability": "nonpayable",
      "type": "constructor"
    },
    {
      "anonymous": false,
      "inputs": [
        {
          "indexed": true,
          "internalType": "address",
          "name": "owner",
          "type": "address"
        },
        {
          "indexed": true,
          "internalType": "address",
          "name": "approved",
          "type": "address"
        },
        {
          "indexed": true,
          "internalType": "uint256",
          "name": "tokenId",
          "type": "uint256"
        }
      ],
      "name": "Approval",
      "type": "event"
    },
    {
      "anonymous": false,
      "inputs": [
        {
          "indexed": true,
          "internalType": "address",
          "name": "owner",
          "type": "address"
        },
        {
          "indexed": true,
          "internalType": "address",
          "name": "operator",
          "type": "address"
        },
        {
          "indexed": false,
          "internalType": "bool",
          "name": "approved",
          "type": "bool"
        }
      ],
      "name": "ApprovalForAll",
      "type": "event"
    },
    {
      "anonymous": false,
      "inputs": [
        {
          "indexed": true,
          "internalType": "address",
          "name": "from",
          "type": "address"
        },
        {
          "indexed": true,
          "internalType": "address",
          "name": "to",
          "type": "address"
        },
        {
          "indexed": true,
          "internalType": "uint256",
          "name": "tokenId",
          "type": "uint256"
        }
      ],
      "name": "Transfer",
      "type": "event"
    },
    {
      "inputs": [
        {
          "internalType": "address",
          "name": "to",
          "type": "address"
        },
        {
          "internalType": "uint256",
          "name": "tokenId",
          "type": "uint256"
        }
      ],
      "name": "approve",
      "outputs": [],
      "stateMutability": "nonpayable",
      "type": "function"
    },
    {
      "inputs": [
        {
          "internalType": "address",
          "name": "owner",
          "type": "address"
        }
      ],
      "name": "balanceOf",
      "outputs": [
        {
          "internalType": "uint256",
          "name": "",
          "type": "uint256"
        }
      ],
      "stateMutability": "view",
      "type": "function"
    },
    {
      "inputs": [
        {
          "internalType": "uint256",
          "name": "",
          "type": "uint256"
        }
      ],
      "name": "categories",
      "outputs": [
        {
          "internalType": "string",
          "name": "",
          "type": "string"
        }
      ],
      "stateMutability": "view",
      "type": "function"
    },
    {
      "inputs": [
        {
          "internalType": "uint256",
          "name": "tokenId",
          "type": "uint256"
        }
      ],
      "name": "getApproved",
      "outputs": [
        {
          "internalType": "address",
          "name": "",
          "type": "address"
        }
      ],
      "stateMutability": "view",
      "type": "function"
    },
    {
      "inputs": [
        {
          "internalType": "uint256",
          "name": "",
          "type": "uint256"
        }
      ],
      "name": "imageData",
      "outputs": [
        {
          "internalType": "string",
          "name": "name",
          "type": "string"
        },
        {
          "internalType": "string",
          "name": "mimeType",
          "type": "string"
        },
        {
          "internalType": "string",
          "name": "nftData",
          "type": "string"
        },
        {
          "internalType": "string",
          "name": "category",
          "type": "string"
        },
        {
          "internalType": "string",
          "name": "description",
          "type": "string"
        },
        {
          "internalType": "string",
          "name": "url",
          "type": "string"
        },
        {
          "internalType": "uint256",
          "name": "price",
          "type": "uint256"
        }
      ],
      "stateMutability": "view",
      "type": "function"
    },
    {
      "inputs": [
        {
          "internalType": "uint256",
          "name": "",
          "type": "uint256"
        }
      ],
      "name": "images",
      "outputs": [
        {
          "internalType": "string",
          "name": "",
          "type": "string"
        }
      ],
      "stateMutability": "view",
      "type": "function"
    },
    {
      "inputs": [
        {
          "internalType": "address",
          "name": "owner",
          "type": "address"
        },
        {
          "internalType": "address",
          "name": "operator",
          "type": "address"
        }
      ],
      "name": "isApprovedForAll",
      "outputs": [
        {
          "internalType": "bool",
          "name": "",
          "type": "bool"
        }
      ],
      "stateMutability": "view",
      "type": "function"
    },
    {
      "inputs": [
        {
          "internalType": "uint256",
          "name": "",
          "type": "uint256"
        }
      ],
      "name": "mimetypes",
      "outputs": [
        {
          "internalType": "string",
          "name": "",
          "type": "string"
        }
      ],
      "stateMutability": "view",
      "type": "function"
    },
    {
      "inputs": [],
      "name": "name",
      "outputs": [
        {
          "internalType": "string",
          "name": "",
          "type": "string"
        }
      ],
      "stateMutability": "view",
      "type": "function"
    },
    {
      "inputs": [
        {
          "internalType": "uint256",
          "name": "tokenId",
          "type": "uint256"
        }
      ],
      "name": "ownerOf",
      "outputs": [
        {
          "internalType": "address",
          "name": "",
          "type": "address"
        }
      ],
      "stateMutability": "view",
      "type": "function"
    },
    {
      "inputs": [
        {
          "internalType": "address",
          "name": "from",
          "type": "address"
        },
        {
          "internalType": "address",
          "name": "to",
          "type": "address"
        },
        {
          "internalType": "uint256",
          "name": "tokenId",
          "type": "uint256"
        }
      ],
      "name": "safeTransferFrom",
      "outputs": [],
      "stateMutability": "nonpayable",
      "type": "function"
    },
    {
      "inputs": [
        {
          "internalType": "address",
          "name": "from",
          "type": "address"
        },
        {
          "internalType": "address",
          "name": "to",
          "type": "address"
        },
        {
          "internalType": "uint256",
          "name": "tokenId",
          "type": "uint256"
        },
        {
          "internalType": "bytes",
          "name": "_data",
          "type": "bytes"
        }
      ],
      "name": "safeTransferFrom",
      "outputs": [],
      "stateMutability": "nonpayable",
      "type": "function"
    },
    {
      "inputs": [
        {
          "internalType": "address",
          "name": "operator",
          "type": "address"
        },
        {
          "internalType": "bool",
          "name": "approved",
          "type": "bool"
        }
      ],
      "name": "setApprovalForAll",
      "outputs": [],
      "stateMutability": "nonpayable",
      "type": "function"
    },
    {
      "inputs": [
        {
          "internalType": "bytes4",
          "name": "interfaceId",
          "type": "bytes4"
        }
      ],
      "name": "supportsInterface",
      "outputs": [
        {
          "internalType": "bool",
          "name": "",
          "type": "bool"
        }
      ],
      "stateMutability": "view",
      "type": "function"
    },
    {
      "inputs": [],
      "name": "symbol",
      "outputs": [
        {
          "internalType": "string",
          "name": "",
          "type": "string"
        }
      ],
      "stateMutability": "view",
      "type": "function"
    },
    {
      "inputs": [
        {
          "internalType": "uint256",
          "name": "index",
          "type": "uint256"
        }
      ],
      "name": "tokenByIndex",
      "outputs": [
        {
          "internalType": "uint256",
          "name": "",
          "type": "uint256"
        }
      ],
      "stateMutability": "view",
      "type": "function"
    },
    {
      "inputs": [
        {
          "internalType": "address",
          "name": "owner",
          "type": "address"
        },
        {
          "internalType": "uint256",
          "name": "index",
          "type": "uint256"
        }
      ],
      "name": "tokenOfOwnerByIndex",
      "outputs": [
        {
          "internalType": "uint256",
          "name": "",
          "type": "uint256"
        }
      ],
      "stateMutability": "view",
      "type": "function"
    },
    {
      "inputs": [
        {
          "internalType": "uint256",
          "name": "tokenId",
          "type": "uint256"
        }
      ],
      "name": "tokenURI",
      "outputs": [
        {
          "internalType": "string",
          "name": "",
          "type": "string"
        }
      ],
      "stateMutability": "view",
      "type": "function"
    },
    {
      "inputs": [],
      "name": "totalSupply",
      "outputs": [
        {
          "internalType": "uint256",
          "name": "",
          "type": "uint256"
        }
      ],
      "stateMutability": "view",
      "type": "function"
    },
    {
      "inputs": [
        {
          "internalType": "address",
          "name": "from",
          "type": "address"
        },
        {
          "internalType": "address",
          "name": "to",
          "type": "address"
        },
        {
          "internalType": "uint256",
          "name": "tokenId",
          "type": "uint256"
        }
      ],
      "name": "transferFrom",
      "outputs": [],
      "stateMutability": "nonpayable",
      "type": "function"
    },
    {
      "inputs": [
        {
          "internalType": "string",
          "name": "_name",
          "type": "string"
        },
        {
          "internalType": "string",
          "name": "_mimeType",
          "type": "string"
        },
        {
          "internalType": "string",
          "name": "_nftData",
          "type": "string"
        },
        {
          "internalType": "string",
          "name": "_category",
          "type": "string"
        },
        {
          "internalType": "string",
          "name": "_description",
          "type": "string"
        },
        {
          "internalType": "string",
          "name": "_url",
          "type": "string"
        },
        {
          "internalType": "uint256",
          "name": "_price",
          "type": "uint256"
        }
      ],
      "name": "mint",
      "outputs": [
        {
          "internalType": "uint256",
          "name": "",
          "type": "uint256"
        }
      ],
      "stateMutability": "nonpayable",
      "type": "function"
    },
    {
      "inputs": [
        {
          "internalType": "address",
          "name": "_to",
          "type": "address"
        },
        {
          "internalType": "uint256",
          "name": "_tokenId",
          "type": "uint256"
        }
      ],
      "name": "approveNFT",
      "outputs": [],
      "stateMutability": "nonpayable",
      "type": "function"
    },
    {
      "inputs": [
        {
          "internalType": "address",
          "name": "_address",
          "type": "address"
        },
        {
          "internalType": "uint256",
          "name": "_tokenId",
          "type": "uint256"
        }
      ],
      "name": "isApprovedOrOwner",
      "outputs": [
        {
          "internalType": "bool",
          "name": "",
          "type": "bool"
        }
      ],
      "stateMutability": "nonpayable",
      "type": "function"
    },
    {
      "inputs": [
        {
          "internalType": "uint256",
          "name": "_id",
          "type": "uint256"
        },
        {
          "internalType": "uint256",
          "name": "_price",
          "type": "uint256"
        }
      ],
      "name": "updatePrice",
      "outputs": [
        {
          "internalType": "bool",
          "name": "",
          "type": "bool"
        }
      ],
      "stateMutability": "nonpayable",
      "type": "function"
    },
    {
      "inputs": [
        {
          "internalType": "address",
          "name": "_to",
          "type": "address"
        },
        {
          "internalType": "uint256",
          "name": "_tokenId",
          "type": "uint256"
        },
        {
          "internalType": "uint256",
          "name": "_price",
          "type": "uint256"
        }
      ],
      "name": "approveForSale",
      "outputs": [],
      "stateMutability": "nonpayable",
      "type": "function"
    },
    {
      "inputs": [
        {
          "internalType": "address",
          "name": "_to",
          "type": "address"
        },
        {
          "internalType": "uint256",
          "name": "_tokenId",
          "type": "uint256"
        },
        {
          "internalType": "uint256",
          "name": "_price",
          "type": "uint256"
        },
        {
          "internalType": "uint256",
          "name": "_time",
          "type": "uint256"
        }
      ],
      "name": "approveForAuction",
      "outputs": [],
      "stateMutability": "nonpayable",
      "type": "function"
    },
    {
      "inputs": [
        {
          "internalType": "uint256",
          "name": "_tokenId",
          "type": "uint256"
        }
      ],
      "name": "nftSold",
      "outputs": [],
      "stateMutability": "nonpayable",
      "type": "function"
    }
  ],
  "bytecode": "0x60806040523480156200001157600080fd5b506040518060400160405280600981526020017f537966696e5f4e465400000000000000000000000000000000000000000000008152506040518060400160405280600681526020017f5359464e46540000000000000000000000000000000000000000000000000000815250816000908051906020019062000096929190620000b8565b508060019080519060200190620000af929190620000b8565b505050620001cd565b828054620000c69062000168565b90600052602060002090601f016020900481019282620000ea576000855562000136565b82601f106200010557805160ff191683800117855562000136565b8280016001018555821562000136579182015b828111156200013557825182559160200191906001019062000118565b5b50905062000145919062000149565b5090565b5b80821115620001645760008160009055506001016200014a565b5090565b600060028204905060018216806200018157607f821691505b602082108114156200019857620001976200019e565b5b50919050565b7f4e487b7100000000000000000000000000000000000000000000000000000000600052602260045260246000fd5b6140fd80620001dd6000396000f3fe608060405234801561001057600080fd5b50600436106101a95760003560e01c80634f6ccce7116100f9578063a22cb46511610097578063c87b56dd11610071578063c87b56dd1461052e578063d2c8d2761461055e578063e985e9c51461058e578063fbd4bae1146105be576101a9565b8063a22cb465146104c6578063b88d4fde146104e2578063c6cdbe5e146104fe576101a9565b806382367b2d116100d357806382367b2d1461042c578063848564821461045c57806395d89b411461048c5780639600dd83146104aa576101a9565b80634f6ccce71461039c5780636352211e146103cc57806370a08231146103fc576101a9565b806318160ddd116101665780632f745c59116101405780632f745c591461030457806341160d471461033457806342842e0e14610350578063430c20811461036c576101a9565b806318160ddd1461029a57806323b872dd146102b8578063250d6b5d146102d4576101a9565b806301ffc9a7146101ae578063061ba2f1146101de57806306fdde0314610214578063081812fc14610232578063095ea7b31461026257806316875c111461027e575b600080fd5b6101c860048036038101906101c39190612e60565b6105da565b6040516101d59190613436565b60405180910390f35b6101f860048036038101906101f39190613004565b610654565b60405161020b9796959493929190613473565b60405180910390f35b61021c6109c6565b6040516102299190613451565b60405180910390f35b61024c60048036038101906102479190613004565b610a58565b60405161025991906133cf565b60405180910390f35b61027c60048036038101906102779190612d66565b610add565b005b61029860048036038101906102939190613004565b610bf5565b005b6102a2610c50565b6040516102af919061372c565b60405180910390f35b6102d260048036038101906102cd9190612c50565b610c5d565b005b6102ee60048036038101906102e99190613004565b610cbd565b6040516102fb9190613451565b60405180910390f35b61031e60048036038101906103199190612d66565b610d69565b60405161032b919061372c565b60405180910390f35b61034e60048036038101906103499190612df9565b610e0e565b005b61036a60048036038101906103659190612c50565b610ec3565b005b61038660048036038101906103819190612d66565b610ee3565b6040516103939190613436565b60405180910390f35b6103b660048036038101906103b19190613004565b610ef7565b6040516103c3919061372c565b60405180910390f35b6103e660048036038101906103e19190613004565b610f68565b6040516103f391906133cf565b60405180910390f35b61041660048036038101906104119190612be3565b61101a565b604051610423919061372c565b60405180910390f35b61044660048036038101906104419190613031565b6110d2565b6040516104539190613436565b60405180910390f35b61047660048036038101906104719190613004565b611139565b6040516104839190613451565b60405180910390f35b6104946111e5565b6040516104a19190613451565b60405180910390f35b6104c460048036038101906104bf9190612d66565b611277565b005b6104e060048036038101906104db9190612d26565b611285565b005b6104fc60048036038101906104f79190612ca3565b611406565b005b61051860048036038101906105139190613004565b611468565b6040516105259190613451565b60405180910390f35b61054860048036038101906105439190613004565b611514565b6040516105559190613451565b60405180910390f35b61057860048036038101906105739190612eba565b611666565b604051610585919061372c565b60405180910390f35b6105a860048036038101906105a39190612c10565b6118d0565b6040516105b59190613436565b60405180910390f35b6105d860048036038101906105d39190612da6565b611964565b005b60007f780e9d63000000000000000000000000000000000000000000000000000000007bffffffffffffffffffffffffffffffffffffffffffffffffffffffff1916827bffffffffffffffffffffffffffffffffffffffffffffffffffffffff1916148061064d575061064c826119db565b5b9050919050565b600e60205280600052604060002060009150905080600001805461067790613982565b80601f01602080910402602001604051908101604052809291908181526020018280546106a390613982565b80156106f05780601f106106c5576101008083540402835291602001916106f0565b820191906000526020600020905b8154815290600101906020018083116106d357829003601f168201915b50505050509080600101805461070590613982565b80601f016020809104026020016040519081016040528092919081815260200182805461073190613982565b801561077e5780601f106107535761010080835404028352916020019161077e565b820191906000526020600020905b81548152906001019060200180831161076157829003601f168201915b50505050509080600201805461079390613982565b80601f01602080910402602001604051908101604052809291908181526020018280546107bf90613982565b801561080c5780601f106107e15761010080835404028352916020019161080c565b820191906000526020600020905b8154815290600101906020018083116107ef57829003601f168201915b50505050509080600301805461082190613982565b80601f016020809104026020016040519081016040528092919081815260200182805461084d90613982565b801561089a5780601f1061086f5761010080835404028352916020019161089a565b820191906000526020600020905b81548152906001019060200180831161087d57829003601f168201915b5050505050908060040180546108af90613982565b80601f01602080910402602001604051908101604052809291908181526020018280546108db90613982565b80156109285780601f106108fd57610100808354040283529160200191610928565b820191906000526020600020905b81548152906001019060200180831161090b57829003601f168201915b50505050509080600501805461093d90613982565b80601f016020809104026020016040519081016040528092919081815260200182805461096990613982565b80156109b65780601f1061098b576101008083540402835291602001916109b6565b820191906000526020600020905b81548152906001019060200180831161099957829003601f168201915b5050505050908060060154905087565b6060600080546109d590613982565b80601f0160208091040260200160405190810160405280929190818152602001828054610a0190613982565b8015610a4e5780601f10610a2357610100808354040283529160200191610a4e565b820191906000526020600020905b815481529060010190602001808311610a3157829003601f168201915b5050505050905090565b6000610a6382611abd565b610aa2576040517f08c379a0000000000000000000000000000000000000000000000000000000008152600401610a999061366c565b60405180910390fd5b6004600083815260200190815260200160002060009054906101000a900473ffffffffffffffffffffffffffffffffffffffff169050919050565b6000610ae882610f68565b90508073ffffffffffffffffffffffffffffffffffffffff168373ffffffffffffffffffffffffffffffffffffffff161415610b59576040517f08c379a0000000000000000000000000000000000000000000000000000000008152600401610b50906136cc565b60405180910390fd5b8073ffffffffffffffffffffffffffffffffffffffff16610b78611b29565b73ffffffffffffffffffffffffffffffffffffffff161480610ba75750610ba681610ba1611b29565b6118d0565b5b610be6576040517f08c379a0000000000000000000000000000000000000000000000000000000008152600401610bdd906135cc565b60405180910390fd5b610bf08383611b31565b505050565b60006011600083815260200190815260200160002060006101000a81548160ff02191690831515021790555060006010600083815260200190815260200160002060006101000a81548160ff02191690831515021790555050565b6000600880549050905090565b610c6e610c68611b29565b82611bea565b610cad576040517f08c379a0000000000000000000000000000000000000000000000000000000008152600401610ca4906136ec565b60405180910390fd5b610cb8838383611cc8565b505050565b600d8181548110610ccd57600080fd5b906000526020600020016000915090508054610ce890613982565b80601f0160208091040260200160405190810160405280929190818152602001828054610d1490613982565b8015610d615780601f10610d3657610100808354040283529160200191610d61565b820191906000526020600020905b815481529060010190602001808311610d4457829003601f168201915b505050505081565b6000610d748361101a565b8210610db5576040517f08c379a0000000000000000000000000000000000000000000000000000000008152600401610dac9061350c565b60405180910390fd5b600660008473ffffffffffffffffffffffffffffffffffffffff1673ffffffffffffffffffffffffffffffffffffffff168152602001908152602001600020600083815260200190815260200160002054905092915050565b600015156011600085815260200190815260200160002060009054906101000a900460ff16151514610e3f57600080fd5b60016010600085815260200190815260200160002060006101000a81548160ff021916908315150217905550610e758484611277565b610e7d6129a0565b8281600001818152505081816020018181525050806012600086815260200190815260200160002060008201518160000155602082015181600101559050505050505050565b610ede83838360405180602001604052806000815250611406565b505050565b6000610eef8383611bea565b905092915050565b6000610f01610c50565b8210610f42576040517f08c379a0000000000000000000000000000000000000000000000000000000008152600401610f399061370c565b60405180910390fd5b60088281548110610f5657610f55613b1b565b5b90600052602060002001549050919050565b6000806002600084815260200190815260200160002060009054906101000a900473ffffffffffffffffffffffffffffffffffffffff169050600073ffffffffffffffffffffffffffffffffffffffff168173ffffffffffffffffffffffffffffffffffffffff161415611011576040517f08c379a00000000000000000000000000000000000000000000000000000000081526004016110089061360c565b60405180910390fd5b80915050919050565b60008073ffffffffffffffffffffffffffffffffffffffff168273ffffffffffffffffffffffffffffffffffffffff16141561108b576040517f08c379a0000000000000000000000000000000000000000000000000000000008152600401611082906135ec565b60405180910390fd5b600360008373ffffffffffffffffffffffffffffffffffffffff1673ffffffffffffffffffffffffffffffffffffffff168152602001908152602001600020549050919050565b60003373ffffffffffffffffffffffffffffffffffffffff166110f484610f68565b73ffffffffffffffffffffffffffffffffffffffff161461111457600080fd5b81600e6000858152602001908152602001600020600601819055506001905092915050565b600b818154811061114957600080fd5b90600052602060002001600091509050805461116490613982565b80601f016020809104026020016040519081016040528092919081815260200182805461119090613982565b80156111dd5780601f106111b2576101008083540402835291602001916111dd565b820191906000526020600020905b8154815290600101906020018083116111c057829003601f168201915b505050505081565b6060600180546111f490613982565b80601f016020809104026020016040519081016040528092919081815260200182805461122090613982565b801561126d5780601f106112425761010080835404028352916020019161126d565b820191906000526020600020905b81548152906001019060200180831161125057829003601f168201915b5050505050905090565b6112818282610add565b5050565b61128d611b29565b73ffffffffffffffffffffffffffffffffffffffff168273ffffffffffffffffffffffffffffffffffffffff1614156112fb576040517f08c379a00000000000000000000000000000000000000000000000000000000081526004016112f29061358c565b60405180910390fd5b8060056000611308611b29565b73ffffffffffffffffffffffffffffffffffffffff1673ffffffffffffffffffffffffffffffffffffffff16815260200190815260200160002060008473ffffffffffffffffffffffffffffffffffffffff1673ffffffffffffffffffffffffffffffffffffffff16815260200190815260200160002060006101000a81548160ff0219169083151502179055508173ffffffffffffffffffffffffffffffffffffffff166113b5611b29565b73ffffffffffffffffffffffffffffffffffffffff167f17307eab39ab6107e8899845ad3d59bd9653f200f220920489ca2b5937696c31836040516113fa9190613436565b60405180910390a35050565b611417611411611b29565b83611bea565b611456576040517f08c379a000000000000000000000000000000000000000000000000000000000815260040161144d906136ec565b60405180910390fd5b61146284848484611f24565b50505050565b600c818154811061147857600080fd5b90600052602060002001600091509050805461149390613982565b80601f01602080910402602001604051908101604052809291908181526020018280546114bf90613982565b801561150c5780601f106114e15761010080835404028352916020019161150c565b820191906000526020600020905b8154815290600101906020018083116114ef57829003601f168201915b505050505081565b606061151f82611abd565b61155e576040517f08c379a00000000000000000000000000000000000000000000000000000000081526004016115559061364c565b60405180910390fd5b6000600a6000848152602001908152602001600020805461157e90613982565b80601f01602080910402602001604051908101604052809291908181526020018280546115aa90613982565b80156115f75780601f106115cc576101008083540402835291602001916115f7565b820191906000526020600020905b8154815290600101906020018083116115da57829003601f168201915b505050505090506000611608611f80565b905060008151141561161e578192505050611661565b60008251111561165357808260405160200161163b9291906133ab565b60405160208183030381529060405292505050611661565b61165c84611f97565b925050505b919050565b6000600f886040516116789190613394565b908152602001604051809103902060009054906101000a900460ff161561169e57600080fd5b6116a66129ba565b888160000181905250878160200181905250868160400181905250858160600181905250848160800181905250838160a00181905250828160c0018181525050600b899080600181540180825580915050600190039060005260206000200160009091909190915090805190602001906117219291906129f7565b50600c8690806001815401808255809150506001900390600052602060002001600090919091909150908051906020019061175d9291906129f7565b50600d889080600181540180825580915050600190039060005260206000200160009091909190915090805190602001906117999291906129f7565b5060006001600b805490506117ae9190613898565b905081600e600083815260200190815260200160002060008201518160000190805190602001906117e09291906129f7565b5060208201518160010190805190602001906117fd9291906129f7565b50604082015181600201908051906020019061181a9291906129f7565b5060608201518160030190805190602001906118379291906129f7565b5060808201518160040190805190602001906118549291906129f7565b5060a08201518160050190805190602001906118719291906129f7565b5060c08201518160060155905050611889338261203e565b6001600f8b60405161189b9190613394565b908152602001604051809103902060006101000a81548160ff0219169083151502179055508092505050979650505050505050565b6000600560008473ffffffffffffffffffffffffffffffffffffffff1673ffffffffffffffffffffffffffffffffffffffff16815260200190815260200160002060008373ffffffffffffffffffffffffffffffffffffffff1673ffffffffffffffffffffffffffffffffffffffff16815260200190815260200160002060009054906101000a900460ff16905092915050565b600015156010600084815260200190815260200160002060009054906101000a900460ff1615151461199557600080fd5b60016011600084815260200190815260200160002060006101000a81548160ff0219169083151502179055506119cb82826110d2565b506119d68383611277565b505050565b60007f80ac58cd000000000000000000000000000000000000000000000000000000007bffffffffffffffffffffffffffffffffffffffffffffffffffffffff1916827bffffffffffffffffffffffffffffffffffffffffffffffffffffffff19161480611aa657507f5b5e139f000000000000000000000000000000000000000000000000000000007bffffffffffffffffffffffffffffffffffffffffffffffffffffffff1916827bffffffffffffffffffffffffffffffffffffffffffffffffffffffff1916145b80611ab65750611ab58261220c565b5b9050919050565b60008073ffffffffffffffffffffffffffffffffffffffff166002600084815260200190815260200160002060009054906101000a900473ffffffffffffffffffffffffffffffffffffffff1673ffffffffffffffffffffffffffffffffffffffff1614159050919050565b600033905090565b816004600083815260200190815260200160002060006101000a81548173ffffffffffffffffffffffffffffffffffffffff021916908373ffffffffffffffffffffffffffffffffffffffff160217905550808273ffffffffffffffffffffffffffffffffffffffff16611ba483610f68565b73ffffffffffffffffffffffffffffffffffffffff167f8c5be1e5ebec7d5bd14f71427d1e84f3dd0314c0f7b2291e5b200ac8c7c3b92560405160405180910390a45050565b6000611bf582611abd565b611c34576040517f08c379a0000000000000000000000000000000000000000000000000000000008152600401611c2b906135ac565b60405180910390fd5b6000611c3f83610f68565b90508073ffffffffffffffffffffffffffffffffffffffff168473ffffffffffffffffffffffffffffffffffffffff161480611cae57508373ffffffffffffffffffffffffffffffffffffffff16611c9684610a58565b73ffffffffffffffffffffffffffffffffffffffff16145b80611cbf5750611cbe81856118d0565b5b91505092915050565b8273ffffffffffffffffffffffffffffffffffffffff16611ce882610f68565b73ffffffffffffffffffffffffffffffffffffffff1614611d3e576040517f08c379a0000000000000000000000000000000000000000000000000000000008152600401611d359061368c565b60405180910390fd5b600073ffffffffffffffffffffffffffffffffffffffff168273ffffffffffffffffffffffffffffffffffffffff161415611dae576040517f08c379a0000000000000000000000000000000000000000000000000000000008152600401611da59061356c565b60405180910390fd5b611db9838383612276565b611dc4600082611b31565b6001600360008573ffffffffffffffffffffffffffffffffffffffff1673ffffffffffffffffffffffffffffffffffffffff1681526020019081526020016000206000828254611e149190613898565b925050819055506001600360008473ffffffffffffffffffffffffffffffffffffffff1673ffffffffffffffffffffffffffffffffffffffff1681526020019081526020016000206000828254611e6b9190613811565b92505081905550816002600083815260200190815260200160002060006101000a81548173ffffffffffffffffffffffffffffffffffffffff021916908373ffffffffffffffffffffffffffffffffffffffff160217905550808273ffffffffffffffffffffffffffffffffffffffff168473ffffffffffffffffffffffffffffffffffffffff167fddf252ad1be2c89b69c2b068fc378daa952ba7f163c4a11628f55a4df523b3ef60405160405180910390a4505050565b611f2f848484611cc8565b611f3b8484848461238a565b611f7a576040517f08c379a0000000000000000000000000000000000000000000000000000000008152600401611f719061352c565b60405180910390fd5b50505050565b606060405180602001604052806000815250905090565b6060611fa282611abd565b611fe1576040517f08c379a0000000000000000000000000000000000000000000000000000000008152600401611fd8906136ac565b60405180910390fd5b6000611feb611f80565b9050600081511161200b5760405180602001604052806000815250612036565b8061201584612521565b6040516020016120269291906133ab565b6040516020818303038152906040525b915050919050565b600073ffffffffffffffffffffffffffffffffffffffff168273ffffffffffffffffffffffffffffffffffffffff1614156120ae576040517f08c379a00000000000000000000000000000000000000000000000000000000081526004016120a59061362c565b60405180910390fd5b6120b781611abd565b156120f7576040517f08c379a00000000000000000000000000000000000000000000000000000000081526004016120ee9061354c565b60405180910390fd5b61210360008383612276565b6001600360008473ffffffffffffffffffffffffffffffffffffffff1673ffffffffffffffffffffffffffffffffffffffff16815260200190815260200160002060008282546121539190613811565b92505081905550816002600083815260200190815260200160002060006101000a81548173ffffffffffffffffffffffffffffffffffffffff021916908373ffffffffffffffffffffffffffffffffffffffff160217905550808273ffffffffffffffffffffffffffffffffffffffff16600073ffffffffffffffffffffffffffffffffffffffff167fddf252ad1be2c89b69c2b068fc378daa952ba7f163c4a11628f55a4df523b3ef60405160405180910390a45050565b60007f01ffc9a7000000000000000000000000000000000000000000000000000000007bffffffffffffffffffffffffffffffffffffffffffffffffffffffff1916827bffffffffffffffffffffffffffffffffffffffffffffffffffffffff1916149050919050565b612281838383612682565b600073ffffffffffffffffffffffffffffffffffffffff168373ffffffffffffffffffffffffffffffffffffffff1614156122c4576122bf81612687565b612303565b8173ffffffffffffffffffffffffffffffffffffffff168373ffffffffffffffffffffffffffffffffffffffff16146123025761230183826126d0565b5b5b600073ffffffffffffffffffffffffffffffffffffffff168273ffffffffffffffffffffffffffffffffffffffff161415612346576123418161283d565b612385565b8273ffffffffffffffffffffffffffffffffffffffff168273ffffffffffffffffffffffffffffffffffffffff161461238457612383828261290e565b5b5b505050565b60006123ab8473ffffffffffffffffffffffffffffffffffffffff1661298d565b15612514578373ffffffffffffffffffffffffffffffffffffffff1663150b7a026123d4611b29565b8786866040518563ffffffff1660e01b81526004016123f694939291906133ea565b602060405180830381600087803b15801561241057600080fd5b505af192505050801561244157506040513d601f19601f8201168201806040525081019061243e9190612e8d565b60015b6124c4573d8060008114612471576040519150601f19603f3d011682016040523d82523d6000602084013e612476565b606091505b506000815114156124bc576040517f08c379a00000000000000000000000000000000000000000000000000000000081526004016124b39061352c565b60405180910390fd5b805181602001fd5b63150b7a0260e01b7bffffffffffffffffffffffffffffffffffffffffffffffffffffffff1916817bffffffffffffffffffffffffffffffffffffffffffffffffffffffff191614915050612519565b600190505b949350505050565b60606000821415612569576040518060400160405280600181526020017f3000000000000000000000000000000000000000000000000000000000000000815250905061267d565b600082905060005b6000821461259b578080612584906139e5565b915050600a826125949190613867565b9150612571565b60008167ffffffffffffffff8111156125b7576125b6613b4a565b5b6040519080825280601f01601f1916602001820160405280156125e95781602001600182028036833780820191505090505b5090505b60008514612676576001826126029190613898565b9150600a856126119190613a2e565b603061261d9190613811565b60f81b81838151811061263357612632613b1b565b5b60200101907effffffffffffffffffffffffffffffffffffffffffffffffffffffffffffff1916908160001a905350600a8561266f9190613867565b94506125ed565b8093505050505b919050565b505050565b6008805490506009600083815260200190815260200160002081905550600881908060018154018082558091505060019003906000526020600020016000909190919091505550565b600060016126dd8461101a565b6126e79190613898565b90506000600760008481526020019081526020016000205490508181146127cc576000600660008673ffffffffffffffffffffffffffffffffffffffff1673ffffffffffffffffffffffffffffffffffffffff168152602001908152602001600020600084815260200190815260200160002054905080600660008773ffffffffffffffffffffffffffffffffffffffff1673ffffffffffffffffffffffffffffffffffffffff168152602001908152602001600020600084815260200190815260200160002081905550816007600083815260200190815260200160002081905550505b6007600084815260200190815260200160002060009055600660008573ffffffffffffffffffffffffffffffffffffffff1673ffffffffffffffffffffffffffffffffffffffff16815260200190815260200160002060008381526020019081526020016000206000905550505050565b600060016008805490506128519190613898565b905060006009600084815260200190815260200160002054905060006008838154811061288157612880613b1b565b5b9060005260206000200154905080600883815481106128a3576128a2613b1b565b5b9060005260206000200181905550816009600083815260200190815260200160002081905550600960008581526020019081526020016000206000905560088054806128f2576128f1613aec565b5b6001900381819060005260206000200160009055905550505050565b60006129198361101a565b905081600660008573ffffffffffffffffffffffffffffffffffffffff1673ffffffffffffffffffffffffffffffffffffffff168152602001908152602001600020600083815260200190815260200160002081905550806007600084815260200190815260200160002081905550505050565b600080823b905060008111915050919050565b604051806040016040528060008152602001600081525090565b6040518060e00160405280606081526020016060815260200160608152602001606081526020016060815260200160608152602001600081525090565b828054612a0390613982565b90600052602060002090601f016020900481019282612a255760008555612a6c565b82601f10612a3e57805160ff1916838001178555612a6c565b82800160010185558215612a6c579182015b82811115612a6b578251825591602001919060010190612a50565b5b509050612a799190612a7d565b5090565b5b80821115612a96576000816000905550600101612a7e565b5090565b6000612aad612aa88461376c565b613747565b905082815260208101848484011115612ac957612ac8613b7e565b5b612ad4848285613940565b509392505050565b6000612aef612aea8461379d565b613747565b905082815260208101848484011115612b0b57612b0a613b7e565b5b612b16848285613940565b509392505050565b600081359050612b2d8161406b565b92915050565b600081359050612b4281614082565b92915050565b600081359050612b5781614099565b92915050565b600081519050612b6c81614099565b92915050565b600082601f830112612b8757612b86613b79565b5b8135612b97848260208601612a9a565b91505092915050565b600082601f830112612bb557612bb4613b79565b5b8135612bc5848260208601612adc565b91505092915050565b600081359050612bdd816140b0565b92915050565b600060208284031215612bf957612bf8613b88565b5b6000612c0784828501612b1e565b91505092915050565b60008060408385031215612c2757612c26613b88565b5b6000612c3585828601612b1e565b9250506020612c4685828601612b1e565b9150509250929050565b600080600060608486031215612c6957612c68613b88565b5b6000612c7786828701612b1e565b9350506020612c8886828701612b1e565b9250506040612c9986828701612bce565b9150509250925092565b60008060008060808587031215612cbd57612cbc613b88565b5b6000612ccb87828801612b1e565b9450506020612cdc87828801612b1e565b9350506040612ced87828801612bce565b925050606085013567ffffffffffffffff811115612d0e57612d0d613b83565b5b612d1a87828801612b72565b91505092959194509250565b60008060408385031215612d3d57612d3c613b88565b5b6000612d4b85828601612b1e565b9250506020612d5c85828601612b33565b9150509250929050565b60008060408385031215612d7d57612d7c613b88565b5b6000612d8b85828601612b1e565b9250506020612d9c85828601612bce565b9150509250929050565b600080600060608486031215612dbf57612dbe613b88565b5b6000612dcd86828701612b1e565b9350506020612dde86828701612bce565b9250506040612def86828701612bce565b9150509250925092565b60008060008060808587031215612e1357612e12613b88565b5b6000612e2187828801612b1e565b9450506020612e3287828801612bce565b9350506040612e4387828801612bce565b9250506060612e5487828801612bce565b91505092959194509250565b600060208284031215612e7657612e75613b88565b5b6000612e8484828501612b48565b91505092915050565b600060208284031215612ea357612ea2613b88565b5b6000612eb184828501612b5d565b91505092915050565b600080600080600080600060e0888a031215612ed957612ed8613b88565b5b600088013567ffffffffffffffff811115612ef757612ef6613b83565b5b612f038a828b01612ba0565b975050602088013567ffffffffffffffff811115612f2457612f23613b83565b5b612f308a828b01612ba0565b965050604088013567ffffffffffffffff811115612f5157612f50613b83565b5b612f5d8a828b01612ba0565b955050606088013567ffffffffffffffff811115612f7e57612f7d613b83565b5b612f8a8a828b01612ba0565b945050608088013567ffffffffffffffff811115612fab57612faa613b83565b5b612fb78a828b01612ba0565b93505060a088013567ffffffffffffffff811115612fd857612fd7613b83565b5b612fe48a828b01612ba0565b92505060c0612ff58a828b01612bce565b91505092959891949750929550565b60006020828403121561301a57613019613b88565b5b600061302884828501612bce565b91505092915050565b6000806040838503121561304857613047613b88565b5b600061305685828601612bce565b925050602061306785828601612bce565b9150509250929050565b61307a816138cc565b82525050565b613089816138de565b82525050565b600061309a826137ce565b6130a481856137e4565b93506130b481856020860161394f565b6130bd81613b8d565b840191505092915050565b60006130d3826137d9565b6130dd81856137f5565b93506130ed81856020860161394f565b6130f681613b8d565b840191505092915050565b600061310c826137d9565b6131168185613806565b935061312681856020860161394f565b80840191505092915050565b600061313f602b836137f5565b915061314a82613b9e565b604082019050919050565b60006131626032836137f5565b915061316d82613bed565b604082019050919050565b6000613185601c836137f5565b915061319082613c3c565b602082019050919050565b60006131a86024836137f5565b91506131b382613c65565b604082019050919050565b60006131cb6019836137f5565b91506131d682613cb4565b602082019050919050565b60006131ee602c836137f5565b91506131f982613cdd565b604082019050919050565b60006132116038836137f5565b915061321c82613d2c565b604082019050919050565b6000613234602a836137f5565b915061323f82613d7b565b604082019050919050565b60006132576029836137f5565b915061326282613dca565b604082019050919050565b600061327a6020836137f5565b915061328582613e19565b602082019050919050565b600061329d6031836137f5565b91506132a882613e42565b604082019050919050565b60006132c0602c836137f5565b91506132cb82613e91565b604082019050919050565b60006132e36029836137f5565b91506132ee82613ee0565b604082019050919050565b6000613306602f836137f5565b915061331182613f2f565b604082019050919050565b60006133296021836137f5565b915061333482613f7e565b604082019050919050565b600061334c6031836137f5565b915061335782613fcd565b604082019050919050565b600061336f602c836137f5565b915061337a8261401c565b604082019050919050565b61338e81613936565b82525050565b60006133a08284613101565b915081905092915050565b60006133b78285613101565b91506133c38284613101565b91508190509392505050565b60006020820190506133e46000830184613071565b92915050565b60006080820190506133ff6000830187613071565b61340c6020830186613071565b6134196040830185613385565b818103606083015261342b818461308f565b905095945050505050565b600060208201905061344b6000830184613080565b92915050565b6000602082019050818103600083015261346b81846130c8565b905092915050565b600060e082019050818103600083015261348d818a6130c8565b905081810360208301526134a181896130c8565b905081810360408301526134b581886130c8565b905081810360608301526134c981876130c8565b905081810360808301526134dd81866130c8565b905081810360a08301526134f181856130c8565b905061350060c0830184613385565b98975050505050505050565b6000602082019050818103600083015261352581613132565b9050919050565b6000602082019050818103600083015261354581613155565b9050919050565b6000602082019050818103600083015261356581613178565b9050919050565b600060208201905081810360008301526135858161319b565b9050919050565b600060208201905081810360008301526135a5816131be565b9050919050565b600060208201905081810360008301526135c5816131e1565b9050919050565b600060208201905081810360008301526135e581613204565b9050919050565b6000602082019050818103600083015261360581613227565b9050919050565b600060208201905081810360008301526136258161324a565b9050919050565b600060208201905081810360008301526136458161326d565b9050919050565b6000602082019050818103600083015261366581613290565b9050919050565b60006020820190508181036000830152613685816132b3565b9050919050565b600060208201905081810360008301526136a5816132d6565b9050919050565b600060208201905081810360008301526136c5816132f9565b9050919050565b600060208201905081810360008301526136e58161331c565b9050919050565b600060208201905081810360008301526137058161333f565b9050919050565b6000602082019050818103600083015261372581613362565b9050919050565b60006020820190506137416000830184613385565b92915050565b6000613751613762565b905061375d82826139b4565b919050565b6000604051905090565b600067ffffffffffffffff82111561378757613786613b4a565b5b61379082613b8d565b9050602081019050919050565b600067ffffffffffffffff8211156137b8576137b7613b4a565b5b6137c182613b8d565b9050602081019050919050565b600081519050919050565b600081519050919050565b600082825260208201905092915050565b600082825260208201905092915050565b600081905092915050565b600061381c82613936565b915061382783613936565b9250827fffffffffffffffffffffffffffffffffffffffffffffffffffffffffffffffff0382111561385c5761385b613a5f565b5b828201905092915050565b600061387282613936565b915061387d83613936565b92508261388d5761388c613a8e565b5b828204905092915050565b60006138a382613936565b91506138ae83613936565b9250828210156138c1576138c0613a5f565b5b828203905092915050565b60006138d782613916565b9050919050565b60008115159050919050565b60007fffffffff0000000000000000000000000000000000000000000000000000000082169050919050565b600073ffffffffffffffffffffffffffffffffffffffff82169050919050565b6000819050919050565b82818337600083830152505050565b60005b8381101561396d578082015181840152602081019050613952565b8381111561397c576000848401525b50505050565b6000600282049050600182168061399a57607f821691505b602082108114156139ae576139ad613abd565b5b50919050565b6139bd82613b8d565b810181811067ffffffffffffffff821117156139dc576139db613b4a565b5b80604052505050565b60006139f082613936565b91507fffffffffffffffffffffffffffffffffffffffffffffffffffffffffffffffff821415613a2357613a22613a5f565b5b600182019050919050565b6000613a3982613936565b9150613a4483613936565b925082613a5457613a53613a8e565b5b828206905092915050565b7f4e487b7100000000000000000000000000000000000000000000000000000000600052601160045260246000fd5b7f4e487b7100000000000000000000000000000000000000000000000000000000600052601260045260246000fd5b7f4e487b7100000000000000000000000000000000000000000000000000000000600052602260045260246000fd5b7f4e487b7100000000000000000000000000000000000000000000000000000000600052603160045260246000fd5b7f4e487b7100000000000000000000000000000000000000000000000000000000600052603260045260246000fd5b7f4e487b7100000000000000000000000000000000000000000000000000000000600052604160045260246000fd5b600080fd5b600080fd5b600080fd5b600080fd5b6000601f19601f8301169050919050565b7f455243373231456e756d657261626c653a206f776e657220696e646578206f7560008201527f74206f6620626f756e6473000000000000000000000000000000000000000000602082015250565b7f4552433732313a207472616e7366657220746f206e6f6e20455243373231526560008201527f63656976657220696d706c656d656e7465720000000000000000000000000000602082015250565b7f4552433732313a20746f6b656e20616c7265616479206d696e74656400000000600082015250565b7f4552433732313a207472616e7366657220746f20746865207a65726f2061646460008201527f7265737300000000000000000000000000000000000000000000000000000000602082015250565b7f4552433732313a20617070726f766520746f2063616c6c657200000000000000600082015250565b7f4552433732313a206f70657261746f7220717565727920666f72206e6f6e657860008201527f697374656e7420746f6b656e0000000000000000000000000000000000000000602082015250565b7f4552433732313a20617070726f76652063616c6c6572206973206e6f74206f7760008201527f6e6572206e6f7220617070726f76656420666f7220616c6c0000000000000000602082015250565b7f4552433732313a2062616c616e636520717565727920666f7220746865207a6560008201527f726f206164647265737300000000000000000000000000000000000000000000602082015250565b7f4552433732313a206f776e657220717565727920666f72206e6f6e657869737460008201527f656e7420746f6b656e0000000000000000000000000000000000000000000000602082015250565b7f4552433732313a206d696e7420746f20746865207a65726f2061646472657373600082015250565b7f45524337323155524953746f726167653a2055524920717565727920666f722060008201527f6e6f6e6578697374656e7420746f6b656e000000000000000000000000000000602082015250565b7f4552433732313a20617070726f76656420717565727920666f72206e6f6e657860008201527f697374656e7420746f6b656e0000000000000000000000000000000000000000602082015250565b7f4552433732313a207472616e73666572206f6620746f6b656e2074686174206960008201527f73206e6f74206f776e0000000000000000000000000000000000000000000000602082015250565b7f4552433732314d657461646174613a2055524920717565727920666f72206e6f60008201527f6e6578697374656e7420746f6b656e0000000000000000000000000000000000602082015250565b7f4552433732313a20617070726f76616c20746f2063757272656e74206f776e6560008201527f7200000000000000000000000000000000000000000000000000000000000000602082015250565b7f4552433732313a207472616e736665722063616c6c6572206973206e6f74206f60008201527f776e6572206e6f7220617070726f766564000000000000000000000000000000602082015250565b7f455243373231456e756d657261626c653a20676c6f62616c20696e646578206f60008201527f7574206f6620626f756e64730000000000000000000000000000000000000000602082015250565b614074816138cc565b811461407f57600080fd5b50565b61408b816138de565b811461409657600080fd5b50565b6140a2816138ea565b81146140ad57600080fd5b50565b6140b981613936565b81146140c457600080fd5b5056fea2646970667358221220ca783ddffe0819370a7527021d8db2e317e1be9f24a77e7717d62e6fd9ac06dd64736f6c63430008070033",
  "immutableReferences": {},
  "source": "pragma solidity >0.5.0;\r\n\r\nimport \"../openzeppelin/token/ERC721/extensions/ERC721Full.sol\";\r\nimport \"../openzeppelin/token/ERC721/extensions/IERC721Metadata.sol\";\r\n\r\n// Syfin SYF NFTs on Fantom\r\n// https://t.me/fantomsyfin\r\n// https://sy.finance\r\n// Welcome to the new Metaverse!\r\n\r\ncontract SyfinNFT is IERC721Metadata, ERC721Full{\r\n\r\n  struct metadata { \r\n  string name;\r\n  string mimeType;\r\n  string nftData;\r\n  string category;\r\n  string description;\r\n  string url;\r\n  uint price;\r\n  }\r\n\r\n  string[] public images;\r\n  string[] public categories;\r\n  string[] public mimetypes;\r\n  mapping(uint => metadata) public imageData;\r\n  mapping(string => bool) _imageExists;\r\n\r\n  mapping(uint => bool) _listedForAuction;\r\n  mapping(uint => bool) _listedForSale;\r\n\r\n\r\n  struct auctionData { \r\n  uint price;\r\n  uint time;\r\n  }\r\n  mapping(uint => auctionData) tokenAuction;\r\n\r\n\r\n  constructor() ERC721(\"Syfin_NFT\", \"SYFNFT\") public {}\r\n\r\n  function mint(string memory _name, string memory _mimeType, string memory _nftData, string memory _category, string memory _description, string memory _url, uint _price) public returns (uint){\r\n    require(!_imageExists[_name]);\r\n\r\n    metadata memory md;\r\n    md.name = _name;\r\n    md.mimeType = _mimeType;\r\n    md.nftData = _nftData;\r\n    md.category = _category;\r\n    md.description = _description;\r\n    md.url = _url;\r\n    md.price = _price;\r\n    \r\n    images.push(_name);\r\n    categories.push(_category);\r\n    mimetypes.push(_mimeType);\r\n    uint _id = images.length -1;\r\n    imageData[_id] = md;\r\n    _mint(msg.sender, _id);\r\n    _imageExists[_name] = true;\r\n\r\n    return _id;\r\n  }\r\n\r\n  function approveNFT(address _to, uint _tokenId) public {\r\n    approve(_to, _tokenId);\r\n  }\r\n  \r\n  function isApprovedOrOwner(address _address, uint _tokenId) public returns (bool){\r\n    return _isApprovedOrOwner(_address, _tokenId);\r\n  }\r\n\r\n  function updatePrice(uint _id, uint _price) public returns (bool){\r\n    require(ownerOf(_id) == msg.sender);\r\n    imageData[_id].price = _price;\r\n\r\n    return true;\r\n  }\r\n\r\n  function approveForSale(address _to, uint _tokenId, uint _price) public {\r\n    require(_listedForAuction[_tokenId] == false);\r\n    _listedForSale[_tokenId] = true;\r\n    updatePrice(_tokenId, _price);\r\n    approveNFT(_to, _tokenId);\r\n  }\r\n\r\n  function approveForAuction(address _to, uint _tokenId, uint _price, uint _time) public {\r\n    require(_listedForSale[_tokenId] == false);\r\n    _listedForAuction[_tokenId] = true;\r\n    // updatePrice(_tokenId, _price);\r\n    approveNFT(_to, _tokenId);\r\n\r\n    auctionData memory ad;\r\n    ad.price = _price;\r\n    ad.time = _time;\r\n\r\n    tokenAuction[_tokenId] = ad;\r\n  }\r\n\r\n  function nftSold(uint _tokenId) public {\r\n    _listedForSale[_tokenId] = false;\r\n    _listedForAuction[_tokenId] = false;\r\n  }\r\n\r\n}",
  "sourcePath": "C:\\Users\\carse\\Dropbox\\Syfin\\nft-market-master\\src\\contracts\\SyfinNFT.sol",
  "compiler": {
    "name": "solc",
    "version": "0.8.7+commit.e28d00a7.Emscripten.clang"
  },
  "schemaVersion": "3.4.3",
  "updatedAt": "2021-09-13T22:47:51.814Z",
  "networkType": "ethereum",
  "devdoc": {
    "kind": "dev",
    "methods": {
      "approve(address,uint256)": {
        "details": "See {IERC721-approve}."
      },
      "balanceOf(address)": {
        "details": "See {IERC721-balanceOf}."
      },
      "getApproved(uint256)": {
        "details": "See {IERC721-getApproved}."
      },
      "isApprovedForAll(address,address)": {
        "details": "See {IERC721-isApprovedForAll}."
      },
      "name()": {
        "details": "See {IERC721Metadata-name}."
      },
      "ownerOf(uint256)": {
        "details": "See {IERC721-ownerOf}."
      },
      "safeTransferFrom(address,address,uint256)": {
        "details": "See {IERC721-safeTransferFrom}."
      },
      "safeTransferFrom(address,address,uint256,bytes)": {
        "details": "See {IERC721-safeTransferFrom}."
      },
      "setApprovalForAll(address,bool)": {
        "details": "See {IERC721-setApprovalForAll}."
      },
      "supportsInterface(bytes4)": {
        "details": "See {IERC165-supportsInterface}."
      },
      "symbol()": {
        "details": "See {IERC721Metadata-symbol}."
      },
      "tokenByIndex(uint256)": {
        "details": "See {IERC721Enumerable-tokenByIndex}."
      },
      "tokenOfOwnerByIndex(address,uint256)": {
        "details": "See {IERC721Enumerable-tokenOfOwnerByIndex}."
      },
      "tokenURI(uint256)": {
        "details": "See {IERC721Metadata-tokenURI}."
      },
      "totalSupply()": {
        "details": "See {IERC721Enumerable-totalSupply}."
      },
      "transferFrom(address,address,uint256)": {
        "details": "See {IERC721-transferFrom}."
      }
    },
    "version": 1
  },
  "userdoc": {
    "kind": "user",
    "methods": {},
    "version": 1
  }
}